:0400000000000000FC
:0400010000000000FB
:04000200E3000C0308
:04000300E403CD4302
:04000400E500000013
:0400050005000C03E3
:0400060006A0000050
:040007000703C0002B
:0400080008000001EB
:04000900E60000020B
:04000A0003000000EF
:04000B000200AA0045
:04000C0000020002EC
:04000D0000F40144B6
:04000E00600000DDB1
:04000F0000050005E3
:0400100000140014C4
:040011006800FFFF85
:04001200005A005A36
:0400130072DD330067
:0400140000070007DA
:040015007822884481
:04001600000A006478
:0400170078FF00FF6F
:0400180000000000E4
:04001900208888882B
:04001A0000C800C852
:04001B0000C800DC3D
:04001C0000DC00DC28
:04001D00E100377255
:04001E00222234DD89
:04001F000078006401
:04002000012C00AA05
:04002100008C00E669
:0400220028A22345A8
:04002300001E001E9D
:04002400001F007940
:040025000091000C3A
:0400260000780085D9
:04002700300000FFA6
:04002800000A00C802
:040029000000FF00D4
:04002A00002800C8E2
:04002B0000FF0000D2
:04002C00002800E6C2
:04002D003888A475F6
:04002E00002E002D73
:04002F00005E34CD6E
:04003000002D00623D
:040031000016FF10A6
:040032000052003048
:04003300001F550055
:04003400005D005C0F
:0400350040DD22DDAB
:04003600002D00BEDB
:04003700003200F0A3
:04003800485533AA4A
:04003900003C00BEC9
:04003A00004600F08C
:04003B000082011826
:04003C00555555556C
:04003D0050F1E1009D
:04003E000096000A1E
:04003F00001234ADCA
:0400400000A00028F4
:0400410058DD66110F
:0400420000AA000D03
:0400430000DC664433
:0400440000C00034C4
:0400450000AB45DEE9
:04004600009B003CDF
:040047005555555561
:040048008000000034
:040049000008006447
:04004A00008003002F
:04004B0000C800C821
:04004C00A000000010
:04004D0001000200AC
:04004E0000020004A8
:04004F0025551234ED
:0400500034562AAA4E
:040051007FFF1DDD33
:0400520023134234FE
:04005300A000000009
:040054000000028026
:040055000024003251
:040056001111111162
:0400570058421111E9
:0400580048BBBBBB2B
:04005900111111E68A
:04005A00111111115E
:04005B00111111115D
:04005C00111111115C
:04005D00111111115B
:04005E00BBBB546E66
:04005F001E445BBB25
:040060001111111158
:040061001111111157
:040062001111111156
:040063001111111155
:040064001111111154
:040065001111111153
:040066001111111152
:040067001111111151
:040068001111111150
:04006900111111114F
:04006A00111111114E
:04006B00111111114D
:04006C00111111114C
:04006D00111111114B
:04006E00111111114A
:04006F001111111149
:04007000AAA7794D75
:04007100AAAAAAAAE3
:0400720011E28C7794
:040073001E2D2D1100
:040074001111111144
:040075001111111143
:04007600C56D111132
:04007700AAAAAA7710
:04007800C77AAAAAEF
:0400790011111E2B18
:04007A00111111113E
:04007B00E1EEE111C0
:04007C00E1EEE1EEE2
:04007D00111111EE5E
:04007E00111111113A
:04007F00EEE1EEE1DF
:04008000EEE1EEE1DE
:04008100E1111EE18A
:04008200E1EEE1EEDC
:04008300E1EEE1EEDB
:04008400111EE1EE7A
:04008500EE11111156
:04008600EE1EEE1E5E
:0400870011EEEE1E6A
:04008800B41111118D
:04008900A7AA7AA701
:04008A00A7A7AA7A00
:04008B0065CAAAAAEE
:04008C001BAAA7E123
:04008D00111111112B
:04008E00111111112A
:04008F00AAAC5211B4
:04009000AA7A7AAA24
:04009100AAA7A7A7CC
:04009200111D8CAA06
:040093001111111125
:0400940099995E11C7
:040095009999999903
:040096001111DB99D0
:040097001111111121
:040098009999998118
:0400990099999999FF
:04009A008111B9997E
:04009B0099999999FD
:04009C0099999999FC
:04009D0011EB999931
:04009E00995E111145
:04009F0099999999F9
:0400A000E9999999A8
:0400A100A7961111FC
:0400A200AA7AAA7A12
:0400A300AAAA7AA7E4
:0400A4007AAAA7A7E6
:0400A5001BA7A78965
:0400A6001111111112
:0400A7001111111111
:0400A800A7AAA792CA
:0400A9007AAAAA7A0B
:0400AA007AAAAAAADA
:0400AB001E57AAAA88
:0400AC00111111110C
:0400AD00AAAACE111C
:0400AE00AAAAAAAAA6
:0400AF001112CAAAB6
:0400B0001111111108
:0400B100AAAAAA9EAF
:0400B200AAAAAAAAA2
:0400B3009111CAAA33
:0400B400AAAAAAAAA0
:0400B500AAAAAAAA9F
:0400B60011ECAAAAF5
:0400B700AA911111E8
:0400B800AAAAAAAA9C
:0400B900D7AAAAAA6E
:0400BA00AAAA3111AC
:0400BB007AAA7AA7FC
:0400BC00A777777734
:0400BD00AAA7AAA79D
:0400BE0015AAAAAA2B
:0400BF0011111111F9
:0400C000BD1111114C
:0400C100AAAA7AA7C6
:0400C200CC777AA7D6
:0400C300AA77A777FA
:0400C4004CA7AA7A21
:0400C50011111111F3
:0400C600AAAACE1103
:0400C700AAAAAAAA8D
:0400C800112CAAAAA3
:0400C90011111111EF
:0400CA00AAAAAA91A3
:0400CB00AAAAAAAA89
:0400CC0091119AAA4A
:0400CD00AAAAAAAA87
:0400CE00AAAAAAAA86
:0400CF0011ECAAAADC
:0400D000AA9E1111C2
:0400D100AAAAAAAA83
:0400D200D7AAAAAA55
:0400D300A7A7A31127
:0400D40045B7AA7A08
:0400D500342222248B
:0400D600AA7A7795F6
:0400D7001BA7A7A715
:0400D80011111111E0
:0400D900AC611111F4
:0400DA00A7A7AA7AB0
:0400DB00EDD4897A5D
:0400DC00A7A7B36DB2
:0400DD00AAAAA7AA7A
:0400DE0011111115D6
:0400DF00A7AACE11ED
:0400E000A7A7A7A780
:0400E100167AA7A73D
:0400E20011111111D6
:0400E3007A7A7A9E0D
:0400E4007A7A7A7A30
:0400E5009111CA7A31
:0400E6007A7A7A7A2E
:0400E7007A7A7A7A2D
:0400E80011E7AA7AF8
:0400E9007A911111E6
:0400EA007A7A7A7A2A
:0400EB00D77A7A7ACC
:0400EC00AAAAAA41D1
:0400ED00111D4CAAEB
:0400EE0011111111CA
:0400EF00A77B4E118C
:0400F0001BA7AAAAF6
:0400F10011111111C7
:0400F2007A731111FB
:0400F3007AAAA7AA94
:0400F400111111D500
:0400F500AC4E1111EB
:0400F600A7AA7AA794
:0400F70011111EBA0B
:0400F800466221112A
:0400F900AAAAAAAC59
:0400FA004A7AAAAAEA
:0400FB0011111111BD
:0400FC00786666D1EB
:0400FD0065AAAAAA9C
:0400FE00D111266690
:0400FF00AA75426636
:04010000AAAAAAAA53
:04010100111222CAEB
:040102002621111190
:04010300AAAAAAA555
:0401040012666657C2
:040105007AA7A7CE60
:0401060011111EBAFB
:0401070011111111B0
:0401080075D111118B
:040109001BAA7A7A39
:04010A0011111111AD
:04010B00AAA741114D
:04010C0029A7AA7AFB
:04010D0011111111AA
:04010E005E1111115C
:04010F00AA7AA7A77A
:0401100011111BA707
:0401110011111111A6
:04011200A7A7A77D77
:040113007AA7A7A779
:04011400111111189C
:04011500B111111102
:0401160011777A7A69
:0401170011111111A0
:0401180077D1111179
:040119007A7A7A7AFA
:04011A0011111ECAD7
:04011B00111111119C
:04011C0077A7A7AB6F
:04011D001111111497
:04011E00A7AAAAA63C
:04011F00111111E7C2
:040120001111111197
:040121006111111146
:040122001B7AAAACEE
:040123001111111194
:040124007AAA721130
:040125001EB7AAAAAD
:040126001111111191
:040127001111111190
:04012800AAAAAAA431
:0401290011115AAAAC
:04012A00111111118D
:04012B00AAAAAAC111
:04012C00A7AAAAAA2A
:04012D001111115A41
:04012E005111111149
:04012F0011CAAA7ACD
:040130001111111187
:04013100C2111111D5
:04013200AAAAAAAA21
:040133001111E9AA13
:040134008111111113
:0401350047AAAA7AB1
:040136001111111181
:040137007AAA7AA87E
:040138001111111C74
:04013900111111117E
:04013A00111111117D
:04013B001BAA7AC2BF
:04013C00111111117B
:04013D00AA7A7C110D
:04013E001119AA7A6F
:04013F001111111178
:040140001111111177
:04014100A7A7A73194
:0401420011147AA773
:040143001111111174
:040144007A7A7AC188
:040145007A7A7A7ACE
:0401460011111BAACE
:040147005111111130
:0401480011CAA7AA87
:04014900111111116E
:04014A00411111113D
:04014B007A7A7A77CB
:04014C001111BAAA29
:04014D00A4111111D7
:04014E0018A7A7AA9D
:04014F001111111168
:04015000AA7AAA7B62
:040151001111113A3D
:040152001111111165
:040153001111111164
:040154001BA7AA41FA
:040155001111111162
:040156007AAAAA31A6
:04015700111DCAAA02
:04015800111111115F
:04015900111111115E
:04015A00AAAAAB1191
:04015B0011E9AA7A82
:04015C00111111115B
:04015D00AAAAAAC1DF
:04015E00AAAAAAAAF5
:04015F00111E9A7A59
:040160005111111117
:040161001177AAAABE
:040162001111111155
:040163001111111154
:04016400AAAAAAA4F5
:040165001115AAA71F
:04016600776111119B
:04016700115AAAAAD5
:04016800111111114F
:040169007AA7AAA522
:04016A001ED6397AEA
:04016B00111111114C
:04016C00111111114B
:04016D001BAA7C113C
:04016E001111111149
:04016F00AA7A7ACE20
:04017000111137A78B
:040171001111111146
:040172001111111145
:04017300A77A7E11D8
:040174001167AAA7BE
:040175001111111142
:04017600777A7AC159
:04017700AA7A77A742
:0401780011D9AAA748
:0401790051111111FE
:04017A0011CAA7A758
:04017B00111111113C
:04017C00111111113B
:04017D007A7A7A818F
:04017E001147A7AAD4
:04017F00AA7D111133
:04018000111BA7AAFE
:040181001111111136
:04018200A7AAA7A4DD
:04018300CC77A7AAE4
:04018400EDD448B9B5
:040185001111111E25
:040186001499941123
:040187001111111130
:040188007AAAAAA401
:0401890011111CAA8A
:04018A00111111112D
:04018B00111111112C
:04018C00AAA75111BC
:04018D0011BAA7AA52
:04018E001111111129
:04018F008AAAAAC1CD
:04019000A7AAAAABC5
:040191001DCAA7AA32
:0401920051111111E5
:04019300117AAAAA89
:040194001111111123
:040195001111111122
:04019600AAAAA5115B
:040197001677AAAA83
:04019800A7ACE1111E
:04019900111E9AA7F2
:04019A00111111111D
:04019B007AAA7A7250
:04019C00AAAAAAAAB7
:04019D00C7AAAAAA99
:04019E001ED648B968
:04019F001111111118
:0401A0001111111117
:0401A100AA7A7A7B41
:0401A200111115A77B
:0401A3001111111114
:0401A4001111111113
:0401A5007A7A211130
:0401A6001E7A7A7AC9
:0401A7001111111110
:0401A80047A7AAC1FA
:0401A9007A7A7A5193
:0401AA002CAAAAAA27
:0401AB0041111111DC
:0401AC0011777A7AD3
:0401AD00111111110A
:0401AE001111111109
:0401AF007A7AB11196
:0401B000D7AAAA7AA6
:0401B100AAAA9E1147
:0401B2001111DC7AD1
:0401B3001111111104
:0401B400AAA7AA9EAE
:0401B500AAA7A7A7A7
:0401B600AAAA7AA7D0
:0401B700B9CAAAAA6D
:0401B800111111E42C
:0401B900E11111112E
:0401BA00AAAAAAAC97
:0401BB00111116AA5E
:0401BC0011111111FB
:0401BD0011111111FA
:0401BE00AAACE111F5
:0401BF0012A7AAAA2F
:0401C00011111111F7
:0401C1003AAA7AC11B
:0401C200AAAA75115F
:0401C3007AA7A7A7C9
:0401C40041111114C0
:0401C50011CAAAAA07
:0401C60011111111F1
:0401C70011111111F0
:0401C800AAA91111BE
:0401C9009A7A7AAAFA
:0401CA007AA7A51E4D
:0401CB001111127A82
:0401CC0011111111EB
:0401CD007AAA7A414F
:0401CE007AAAAA7AE5
:0401CF00A7AAA7AA8A
:0401D000AAAAA7AA86
:0401D1001111D5CA69
:0401D200D111111125
:0401D3007A7A7AA713
:0401D40011111E7A6D
:0401D50011111111E2
:0401D60011111111E1
:0401D70077AB1111E0
:0401D80014AA7A7A71
:0401D90011111111DE
:0401DA004A7AAAC1F2
:0401DB007A773111ED
:0401DC007AAAAAAAA7
:0401DD004111114774
:0401DE001177A7A747
:0401DF0011111111D8
:0401E00011111111D7
:0401E100A7CD111184
:0401E200AAAAA7A777
:0401E300A7AAAA35E8
:0401E400111111677D
:0401E50011111111D2
:0401E600AA7AA81138
:0401E700A7A77AAAA2
:0401E8007AA7AAAA9E
:0401E900AAA7AA7A9D
:0401EA0011E57AA7FA
:0401EB00D11111110C
:0401EC00AAAAAA7A97
:0401ED0011111EC707
:0401EE0011111111C9
:0401EF0011111111C8
:0401F000AAA511119A
:0401F10018AAAAAAF4
:0401F20011111111C5
:0401F30037AAAAC1BC
:0401F400AA741111C7
:0401F500AA7A7A7AEE
:0401F6004111137A26
:0401F70011CAAAAAD5
:0401F80011111111BF
:0401F90011111111BE
:0401FA00A7D1111167
:0401FB00AAA7AAAA5B
:0401FC007A7A7AAAE7
:0401FD0011111114B7
:0401FE0011111111B9
:0401FF00A7A781111C
:040200007AAAAA7AB2
:04020100A7A7AA7A87
:04020200AA7AA7AA83
:040203001E9AAAAAEB
:0402040021111111A2
:040205007A7A7AAADD
:0402060011111ECAEA
:0402070011111111AF
:0402080011111111AE
:040209007A731111E2
:04020A0018A7A77A10
:04020B0011111111AB
:04020C004A7A7AC1EF
:04020D00AC411111DE
:04020E00A7AA7AAA77
:04020F00411187A76B
:04021000117A7A7A6B
:0402110011111111A5
:0402120011111111A4
:040213007211111142
:040214007A7A7A7701
:040215008AAAAA7A8D
:0402160011111111A0
:04021700111111119F
:0402180077921111B7
:04021900AA7A7AAA99
:04021A00AAAA7AAA68
:04021B00A7AAAAA73D
:04021C00E9AAA7A7FD
:04021D00D1111111D9
:04021E00AAAAA7A73A
:04021F0011111ECAD1
:040220001111111196
:040221001111111195
:04022200AAA3111169
:0402230018AAAAAAC1
:040224001111111192
:040225003AAAAAC186
:04022600C2111111DF
:04022700AAA7AA7A5E
:0402280041E5AAAA58
:0402290011CAAAAAA2
:04022A00111111118C
:04022B00111111118B
:04022C00411111115A
:04022D00A7AAAAA72B
:04022E00157A7AAA19
:04022F001111111187
:040230001111111186
:040231005611111140
:04023200AAAAAA7C4E
:04023300A7A7A7A72B
:04023400AA7A7AAA7E
:040235005AA7AAAA70
:04023600D1111111C0
:040237007A77AAAA7E
:0402380011111E7A08
:04023900111111117D
:04023A00111111117C
:04023B007A751111AE
:04023C0013A7AA7AE0
:04023D001111111179
:04023E004A7A7AC1BD
:04023F00D1111111B7
:04024000A7AA7AAC43
:0402410041BAA7A770
:040242001177A7A7E2
:040243001111111173
:040244001111111172
:040245001111111171
:04024600AA7A7A74A2
:040247001EBAAA7AB7
:04024800111111116E
:04024900111111116D
:04024A00111111116C
:04024B0077CB84DE0B
:04024C007AAAAAA739
:04024D007AAAAA7A65
:04024E00CAAAAA7A14
:04024F00D111111D9B
:04025000AAAA7A7765
:0402510011111D7AF0
:040252001111111164
:040253001111111163
:04025400AAA9E11161
:0402550014AA7AA7C6
:040256001111111160
:0402570037AAAAC157
:04025800111111115E
:04025900AAAAAA9E05
:04025A0089A7AAAA1C
:04025B0011CAAAAA70
:04025C00111111115A
:04025D001111111159
:04025E001111111158
:04025F007AAAA7517F
:0402600011E97AAA7C
:040261001111111155
:040262001111111154
:04026300116464D1ED
:04026400D111111192
:040265007C99B84484
:04026600AA7A7A777F
:04026700AAA7A7AAF1
:04026800111111144B
:040269007A7AAAA94A
:04026A00111114AAB0
:04026B00111111114B
:04026C00111111114A
:04026D00AA77E1117A
:04026E001E77AA7AD3
:04026F001111111147
:040270004AA7AAC12E
:040271001111111145
:04027200A7A7AB117E
:040273007AAAA7A715
:04027400117AA7A7AD
:040275001111111141
:040276001111111140
:04027700111111113F
:04027800AAA7A91177
:04027900111DAAA702
:04027A00111111113C
:04027B00111111113B
:04027C001EA7AA917E
:04027D001111111139
:04027E00DE1111116B
:04027F00A77B544DB8
:04028000AA7AAAA705
:040281001111111B2B
:040282007AAA7A7862
:04028300111119AA92
:040284001111111132
:040285001111111131
:040286007AA7411101
:040287001E9AAAAA67
:04028800111111112E
:040289003A7AA7C155
:04028A00111111112C
:04028B00AAAA5111B9
:04028C00A7A7AA7AFC
:04028D001ECAAAAA31
:04028E001111111128
:04028F001111111127
:040290001111111126
:04029100A7AAA51162
:04029200111DA7AAE9
:040293001111111123
:040294001111111122
:04029500167A7AB1AA
:040296001111111120
:04029700111111111F
:0402980074E11111EB
:04029900A7A7A7AAC2
:04029A00111111E944
:04029B00A7AAAA76EE
:04029C001111277A9B
:04029D001111111119
:04029E001111111118
:04029F00A7AA911168
:0402A000118A7A7ACB
:0402A1001111111115
:0402A2004AA7AAC1FC
:0402A3001111111113
:0402A400A778111115
:0402A500AAAA7AA7E0
:0402A6001D7A77A79F
:0402A700111111110F
:0402A800111111110E
:0402A900111111110D
:0402AA00AA7A7B11A0
:0402AB00111EAA7AFC
:0402AC00111111110A
:0402AD001111111109
:0402AE0019AAAAB12E
:0402AF001111111107
:0402B0001111111106
:0402B10021111111F5
:0402B200AAAAAA77D3
:0402B30011111119FB
:0402B400AA7A7A9117
:0402B5001111BAAABF
:0402B6001111111100
:0402B70011111111FF
:0402B800AA7A741199
:0402B90011E7AAA7F8
:0402BA0011111111FC
:0402BB004AAAAAC1E0
:0402BC0011111111FA
:0402BD00A741111133
:0402BE007A7AAAAAF4
:0402BF001D7AAAAA50
:0402C00011111111F6
:0402C10011111111F5
:0402C20011111111F4
:0402C3007AAAA5115D
:0402C400111D7AAAE4
:0402C50011111111F1
:0402C60011111111F0
:0402C7003777A7B12D
:0402C80011111111EE
:0402C90011111111ED
:0402CA0011111111EC
:0402CB00A7A7A7A991
:0402CC001111111BE0
:0402CD00A7AAAA61D1
:0402CE0011147AA7E6
:0402CF0011111111E7
:0402D00011111111E6
:0402D100A7AAACD15B
:0402D20011187A7A0B
:0402D30011111111E3
:0402D40037A7AAC1DD
:0402D50011111111E1
:0402D600741111117D
:0402D700AAAAA7A781
:0402D8001D77A7A740
:0402D90011111111DD
:0402DA0011111111DC
:0402DB0011111111DB
:0402DC00AA7A7B116E
:0402DD00111DAAA79E
:0402DE0011111111D8
:0402DF0011111111D7
:0402E000AAAAAAB16B
:0402E10011111113D3
:0402E20011111111D4
:0402E300E111111103
:0402E400AAAA7AAC9C
:0402E50011111118CA
:0402E600AAA7A5110D
:0402E7001167A7AA4A
:0402E80011111111CE
:0402E90011111111CD
:0402EA00AAAA7A9EA4
:0402EB00111ECAAA6C
:0402EC0011111111CA
:0402ED004AAAA7C1B1
:0402EE0011111111C8
:0402EF00D111111107
:0402F000A77A7AA7C8
:0402F1001D7A7AAA4E
:0402F20011111111C4
:0402F30011111111C3
:0402F40011111111C2
:0402F500A7AAA511FE
:0402F600111EAA7AB1
:0402F70011111111BF
:0402F80011111111BE
:0402F9007AA7A7B188
:0402FA00111112BA12
:0402FB0011111111BB
:0402FC00411111118A
:0402FD0077A7A7A791
:0402FE0011111112B7
:0402FF007AAA9E1128
:04030000147A7A7A77
:0403010011111111B4
:04030200D1111111F3
:040303007A7AAAA9AF
:040304001111677AF2
:0403050011111111B0
:040306004A7AAAC1C4
:0403070011111111AE
:0403080011111111AD
:04030900AAAA7ACD55
:04030A001D7AA7A70A
:04030B0011111111AA
:04030C0011111111A9
:04030D0011111111A8
:04030E00AA7AA51111
:04030F00111DA7A76E
:0403100011111111A5
:0403110011111111A4
:04031200A7AAAAB13B
:0403130011E657AAEE
:0403140011111111A1
:0403150073E111116E
:04031600BAAAAAAA2B
:04031700111111119E
:04031800A7ACD111AC
:04031900577AAAAABB
:04031A001111111E8E
:04031B00C4111111E7
:04031C00AAA7AAAA38
:04031D001111147A2C
:04031E001111111197
:04031F008AAA7A7DAF
:040320001111111195
:040321001111111194
:04032200AA7AA9D139
:040323001D77AA7A1E
:040324001111111191
:040325001111111190
:04032600111111118F
:04032700AAA7A9E1F7
:04032800111DAAAA4F
:04032900111111118C
:04032A00111111118B
:04032B007AAA7AB17F
:04032C004B77AA7AE7
:04032D001111EED2EA
:04032E007ACB6DEE2B
:04032F00ECA7A7AAE6
:040330001111111185
:04033100AA9D11115F
:04033200AAAA7AA752
:040333001111E2576B
:04033400AAC4DE1168
:040335007A7AA7AA7F
:040336001111114749
:0403370055B5411166
:040338007AA7AAAC4A
:040339001165B5593C
:04033A00111111117B
:04033B00A7AABE119E
:04033C001D7AA7A7D8
:04033D001111111178
:04033E001111111177
:04033F0055B611118D
:040340007A7AAA9586
:0403410055B7A7AA5B
:040342001111115B29
:040343001111111172
:04034400AA7AAAB136
:04034500AA7AA7AA3F
:04034600BBBB997A2A
:04034700AAAAA7CBEC
:0403480012CAAAA784
:04034900111111116C
:04034A00A5E1111107
:04034B00A7A7AA7A3C
:04034C00838BCAA72E
:04034D00AAAA79538C
:04034E00CAAAAAA7E6
:04034F001111111661
:04035000AAAA5111F3
:04035100A7AAA7AA06
:04035200115AAAAAE8
:040353001111111162
:04035400AAA5111134
:040355001D7A7AAAE9
:04035600111111115F
:04035700111111115E
:04035800AAA811112D
:04035900AAAA7AAA28
:04035A00AAA7AAA7FD
:04035B0011111EAAB4
:04035C001111111159
:04035D00777A7AB180
:04035E007AA7AA7A56
:04035F00AAA7AA7A25
:040360007AA7AAAA24
:0403610011E57A7AAE
:040362001111111153
:040363006111111102
:040364007AAA7AAC4B
:04036500AAAAA7AAEF
:040366007A7A7AAA7B
:04036700E577A7AAE5
:04036800111111114D
:04036900A7AA5111DD
:04036A007A7AAAA74A
:04036B00113A7A7A4F
:04036C001111111149
:04036D00A781111142
:04036E001D7AA7A7A6
:04036F001111111146
:040370001111111145
:040371007AA8111144
:040372007A7AA7AA42
:04037300A7AAA7AAE4
:0403740011111177DB
:040375001111111140
:0403760018AAAAB166
:04037700AAAA779423
:04037800A7AA7AAA0C
:04037900A7AA7AA70E
:04037A0011112B7AB8
:04037B00111111113A
:04037C001111111139
:04037D00AA7AAC4E5E
:04037E007AA7AA7A36
:04037F00A7AAA7AAD8
:0403800011D57AAA6F
:040381001111111134
:04038200AAA7B11164
:04038300AAA7A7AAD4
:04038400118AAAAA86
:040385001111111130
:0403860073111111CD
:040387001DA7AAAA5A
:04038800111111112D
:04038900111111112C
:04038A00A7A5111101
:04038B00AAA7AA7AF9
:04038C00AAA7AAAAC8
:04038D0011111EAA82
:04038E001111111127
:04038F001377775118
:040390007ACB3D11D6
:04039100AAA7AA7AF3
:04039200B7A7AA7AE5
:04039300111111D360
:040394001111111121
:040395001111111120
:04039600A7754111F5
:04039700AA7AA7AAED
:040398007A7A7AA74C
:040399001111D397D4
:04039A00111111111B
:04039B0083886111E1
:04039C008388888842
:04039D001128883863
:04039E001111111117
:04039F0061111111C6
:0403A0001E488388E8
:0403A1001111111114
:0403A2001111111113
:0403A300888211112A
:0403A400838888883A
:0403A5008388883889
:0403A60011111138E8
:0403A700111111110E
:0403A8001EDEDDE197
:0403A90042E111110B
:0403AA0077777C9550
:0403AB001D68BC7796
:0403AC001111111109
:0403AD001111111108
:0403AE001111111107
:0403AF0086D11111D1
:0403B000A7AA777908
:0403B1004BC777AA15
:0403B200111111ED27
:0403B3001111111102
:0403B4001111111101
:0403B5001111111100
:0403B60011111111FF
:0403B70011111111FE
:0403B80011111111FD
:0403B90011111111FC
:0403BA0011111111FB
:0403BB0011111111FA
:0403BC0011111111F9
:0403BD0011111111F8
:0403BE0011111111F7
:0403BF0011111111F6
:0403C00011111111F5
:0403C10011111111F4
:0403C20011111111F3
:0403C3001DDE111119
:0403C40011111111F1
:0403C50011111111F0
:0403C60011111111EF
:0403C70011111111EE
:0403C80011111111ED
:0403C90044442D116A
:0403CA00111ED644E6
:0403CB0011111111EA
:0403CC0011111111E9
:0403CD0011111111E8
:0403CE0011111111E7
:0403CF0011111111E6
:0403D00011111111E5
:0403D10011111111E4
:0403D20011111111E3
:0403D30011111111E2
:0403D40011111111E1
:0403D50011111111E0
:0403D60011111111DF
:0403D70011111111DE
:0403D80011111111DD
:0403D90011111111DC
:0403DA00A00000007F
:0403DB00018002801B
:0403DC00000100100C
:0403DD005AD67FFF6E
:0403DE0041EC4E712F
:0403DF003DA9460EE0
:0403E00028E14E5072
:0403E100354641CB91
:0403E200396824A0B2
:0403E300527231041D
:0403E40080005694AB
:0403E500A000000074
:0403E600000002C051
:0403E700002C0032B4
:0403E8002222222289
:0403E900EEEE6C3296
:0403EA0022223B6E22
:0403EB002222222286
:0403EC00EEE5B32265
:0403ED002223B6EE23
:0403EE004222222263
:0403EF002221CC4CAF
:0403F0002222222281
:0403F1003222222270
:0403F2002223C4CC32
:0403F300C4C4CC12A0
:0403F40033C4C4C486
:0403F500322222226C
:0403F600222224BBE0
:0403F700222222227A
:0403F8004C12CBB127
:0403F9004C4C4C4CD0
:0403FA004C4C4C4CCF
:0403FB00CC123C4C98
:0403FC00C4C4C4C4ED
:0403FD0021C4C4C48F
:0403FE004C4C4C1205
:0403FF003C4C4C4CDA
:040400002222222171
:04040100322222225F
:04040200AAAAAA8573
:0404030022158AAA8A
:04040400222222226C
:04040500AAAAAAEC09
:0404060024E9AAAA91
:040407008322222208
:040408002225A9AA56
:040409002222222267
:04040A008322222205
:04040B002226AA9A61
:04040C009A9A9A62BC
:04040D0089AA9A9A84
:04040E00E22221DEE7
:04040F00222228AAD3
:040410002222222260
:040411009A339AABD5
:040412009A9A9A9A7E
:040413009A9A9A9A7D
:04041400A9B28A9A65
:040415009A9A9AA96C
:0404160024AA9A9AE0
:04041700AA9A9AC241
:0404180099A9A9A94C
:0404190022222C5718
:04041A009D222222DB
:04041B009999AAAA57
:04041C002C9AAAA9C3
:04041D005122222224
:04041E00999AAAA954
:04041F006AAAAA9982
:0404200093222222DF
:04042100223AAAAA27
:04042200222222224E
:04042300A6222222C9
:04042400222EAAAA30
:04042500AAAAAA6273
:04042600AAAAAAAA2A
:04042700522238AA7B
:04042800222227AABB
:040429002222222247
:04042A00AA319AABAE
:04042B00AAAAAAAA25
:04042C00AAAAAAAA24
:04042D00AAB2AAAA1B
:04042E00AAAAAAAA22
:04042F002CAAAAAA9F
:04043000AAAAAAC208
:04043100AAAAAAAA1F
:0404320022226AAA6E
:04043300AAD2222205
:040434002224B79A2D
:0404350039AAA7D366
:04043600A7122222C5
:04043700224B79AA31
:04043800AAAAED413E
:040439009322221ECA
:04043A0022EAA9AA5F
:04043B002222222235
:04043C00A9122222BD
:04043D002225AA9A30
:04043E006669AA62DF
:04043F009756666600
:04044000E2218AAA81
:04044100222227AAA2
:04044200222222222E
:04044300EE319AAB51
:040444009EEEEEEE4C
:04044500EEEEE8AA45
:04044600AAB25EEE0A
:0404470066666D6A0E
:04044800236666665B
:040449006659AAB294
:04044A008E666666EE
:04044B00222BAAAA0C
:04044C00AAAB222213
:04044D00222222B88D
:04044E00EAAA5122A3
:04044F00AAE22221DA
:0404500022222B8AAF
:04045100AA9D22221C
:040452009322226A65
:04045300249AA6AA97
:04045400222222221C
:04045500AA62222253
:040456002225AA773A
:040457002227AA624C
:0404580042222222F8
:04045900522CAAA8CF
:04045A00222227AA89
:04045B002222222215
:04045C0022238AAB22
:04045D0072222222C3
:04045E0022222DAA7F
:04045F00AAB22222F9
:040460002222222909
:04046100222222220F
:040462002219AAC2EF
:04046300122222221D
:04046400222EAAA5F5
:040465008AA932220C
:040466002222222408
:04046700AAA812220B
:04046800AAAB2223F6
:0404690022222248E1
:04046A00A94222225F
:04046B0093222CAA02
:04046C002EAAECAA1E
:04046D002222222203
:04046E00AA93222209
:04046F002225AAECAC
:040470002228AA6232
:0404710022222222FF
:04047200E225AA9441
:04047300222227AA70
:0404740022222222FC
:0404750022239AABF9
:04047600822222229A
:04047700222226AA6D
:04047800A9B22222E1
:040479002222222AEF
:04047A0022222222F6
:04047B002239AAB2C6
:04047C0022222222F4
:04047D002228AA8106
:04047E00CAAA522292
:04047F0022222222F1
:040480007E7D222239
:040481009AA8122CF7
:0404820022222224EC
:04048300AC22222263
:04048400912217AA00
:0404850049A94CAA8B
:0404860022222222EA
:04048700EAA622229D
:040488002225AAE19E
:040489002218AA6229
:04048A0022222222E6
:04048B00522EAA92B1
:04048C00222227AA57
:04048D0022222222E3
:04048E0022239AABE0
:04048F007222222291
:04049000222226AA54
:04049100AAB22222C7
:040492002222221AE6
:0404930022222222DD
:040494002239AAC29D
:0404950022222222DB
:040496002219AAE29B
:040497002EAA9122D6
:0404980022222222D8
:0404990022222222D7
:04049A005AAAC22276
:04049B0022222222D5
:04049C0052222222A4
:04049D009322C9AA33
:04049E00EAA72BAAF4
:04049F0022222222D1
:0404A000B9A91222C2
:0404A1002225AA72F4
:0404A2002217AA6211
:0404A30022222222CD
:0404A400522EAA9199
:0404A500222227AA3E
:0404A60022222222CA
:0404A70022238AABD7
:0404A8008122222269
:0404A900222226AA3B
:0404AA00AAB22222AE
:0404AB0022222219CE
:0404AC0022222222C4
:0404AD002239AAB294
:0404AE0022222222C2
:0404AF002219AAE282
:0404B0002BAAAB22A6
:0404B10022222222BF
:0404B20022222222BE
:0404B30039AAE2225E
:0404B40022222222BC
:0404B500C22222221B
:0404B60093226AAA79
:0404B7009AA42CAA2D
:0404B80022222223B7
:0404B90027AA6222EA
:0404BA002225AA72DB
:0404BB002227AA62E8
:0404BC0022222222B4
:0404BD00E226AA9BEE
:0404BE00222227AA25
:0404BF0022222222B1
:0404C00022239AABAE
:0404C100822222224F
:0404C200222226AA22
:0404C300AAB2222295
:0404C40022222219B5
:0404C50022222222AB
:0404C6002239AAC26B
:0404C70022222222A9
:0404C8002225AA91AE
:0404C900239AA622AA
:0404CA0022222222A6
:0404CB0022222222A5
:0404CC0028AA8222B6
:0404CD0022222222A3
:0404CE0012222222B2
:0404CF009322EAA9E1
:0404D000AAE22BAAC7
:0404D1002222222E93
:0404D20024AA9322A3
:0404D3002225AA72C2
:0404D4002228AA62CE
:0404D500C2222222FB
:0404D6005223AAA95A
:0404D700222227AA0C
:0404D8002222222298
:0404D90022238AABA5
:0404DA007122222247
:0404DB00222226AA09
:0404DC00AAB222227C
:0404DD002222222A8B
:0404DE002222222292
:0404DF002219AAB282
:0404E0003222222280
:0404E10022249AAE89
:0404E200229AAE228A
:0404E300222222228D
:0404E400222222228C
:0404E5002EAA812298
:0404E600222222228A
:0404E7002222222289
:0404E80093218AAE24
:0404E900AA422BAA4E
:0404EA002222224A5E
:0404EB00227AA622A9
:0404EC002225AA72A9
:0404ED00DD69AA62B9
:0404EE00986DDDDD4B
:0404EF0052225AAA91
:0404F000222227AAF3
:0404F100222222227F
:0404F20022239AAB7C
:0404F300712222222E
:0404F400222226AAF0
:0404F500AAB2222263
:0404F6008888888AE0
:0404F70022D88888F7
:0404F800E5EAAA4245
:0404F90098E5E5E5B8
:0404FA002222C9AA47
:0404FB00229AA72278
:0404FC002222222274
:0404FD002222222273
:0404FE0025AA912278
:0404FF002222222271
:04050000222222226F
:0405010093218AA513
:04050200AE222CAA4F
:040503002222215A35
:0405040022CAA9322C
:040505002225AA728F
:04050600AAAAAA6291
:04050700AAAAAAAA48
:0405080052221EAAB3
:04050900222227AAD9
:04050A002222222265
:04050B0022239AAB62
:04050C007222222213
:04050D00222226AAD6
:04050E00AAB2222249
:04050F00AAAAAAAA40
:04051000225AAAAA17
:04051100AAAAAAC226
:04051200AAAAAAAA3D
:04051300222221E996
:04051400229AA8225D
:04051500222222225A
:040516002222222259
:0405170026AA93225B
:040518002222222257
:040519002222222256
:04051A0093217AAE01
:04051B009C222BAA49
:04051C002222239ADA
:04051D00222EAA627E
:04051E002225AA7177
:04051F00AAAAAA6278
:040520009AAAAAAA3F
:04052100E22222BEF2
:04052200222227AAC0
:04052300222222224C
:0405240022238AAB59
:0405250081222222EB
:04052600222226AABD
:04052700AAB2222230
:040528007777777AF0
:0405290022B7777707
:04052A00AAAAAAB21D
:04052B00AAAAAAAA24
:04052C0022222B89D3
:04052D00229AA52247
:04052E002222222241
:04052F002222222240
:0405300027AA812253
:04053100222222223E
:04053200122222224D
:0405330093217AA7EF
:0405340072222CAA59
:0405350022222EAAA6
:04053600222CAA9336
:040537002225AA725D
:04053800BBD8AA6220
:04053900344BDBBBA9
:04053A005222222205
:04053B00222227AAA7
:04053C002222222233
:04053D0022239AAB30
:04053E0071222222E2
:04053F00222226AAA4
:04054000AAB2222217
:04054100111111196A
:040542002211111160
:0405430043B9AAC24C
:04054400AEB44434D9
:040545002222C9AAFB
:04054600249AA6222B
:040547002222222228
:040548002222222227
:0405490029AA722247
:04054A002222222225
:04054B001222222234
:04054C009122EAA965
:04054D0042222BAA71
:04054E0022224AAA71
:04054F0022227AA644
:040550002225AA7244
:040551002228AA6250
:04055200222222221D
:0405530052222222EC
:04055400222227AA8E
:04055500222222221A
:0405560022239AAB17
:0405570072222222C8
:04055800222226AA8B
:04055900AAB22222FE
:04055A002222222A0D
:04055B002222222214
:04055C002219AAC2F4
:04055D00B222222282
:04055E002221EAA9C3
:04055F0026AAAC22FA
:04056000222222220F
:04056100222222220E
:04056200C9AA5222AE
:04056300222222220C
:04056400B22222227B
:040565009322DAAA59
:0405660022222BAA78
:040567001222EAAEC4
:040568002222CAA9D8
:040569002225AA712C
:04056A002218AA6247
:04056B002222222204
:04056C0052222222D3
:04056D00222228AA74
:04056E002222222201
:04056F0022218AA615
:0405700081222222A0
:04057100222226AA72
:04057200AAB22222E5
:040573002222221A04
:0405740022222222FB
:040575002239AAB2CB
:0405760022222222F9
:0405770022238AAE03
:0405780028AA9122FA
:0405790022222222F6
:04057A00BBB12222CD
:04057B00EAAA422482
:04057C0022222222F3
:04057D008222222292
:04057E00932239AAE1
:04057F0022222CAA5E
:0405800062239AACAC
:04058100222227AA61
:040582002225AA7212
:040583002227AA621F
:0405840022222222EB
:04058500D22222223A
:04058600222239AA4A
:0405870022222222E8
:0405880022227AA70A
:040589007122222297
:04058A00222226AA59
:04058B00AAB22222CC
:04058C0022222229DC
:04058D0022222222E2
:04058E002239AAC2A2
:04058F0022222222E0
:040590002224AAABCC
:04059100DAAA62225E
:0405920022222222DD
:04059300AAAD2222C9
:04059400AAAE222DBC
:040595002222222DCF
:04059600A622222255
:0405970093222EAAD3
:0405980022222BAA46
:04059900932EAAE211
:04059A0022222C9A53
:04059B002225AA71FA
:04059C002218AA6215
:04059D0022222222D2
:04059E0032222222C1
:04059F0022226AAA00
:0405A00032222222BF
:0405A10022226AAAFE
:0405A200712222227E
:0405A300222226AA40
:0405A400AAB22222B3
:0405A5002222221AD2
:0405A60022222222C9
:0405A7002239AAB299
:0405A80022222222C7
:0405A900222BAAACAB
:0405AA009AA93222B6
:0405AB002222222BBB
:0405AC00AAA93222A4
:0405AD00AA942224C6
:0405AE00222222B92A
:0405AF00A9D2222289
:0405B0009322239AD5
:0405B10022222BAA2D
:0405B200AD39A9C2F4
:0405B3002222217A65
:0405B4002225AAE270
:0405B5002218AA62FC
:0405B60022222222B9
:0405B70022222222B8
:0405B800222C9AAEA9
:0405B9007122222267
:0405BA00222239AA16
:0405BB007222222264
:0405BC00222226AA27
:0405BD00AAB222229A
:0405BE002222222AA9
:0405BF0022222222B0
:0405C0002239AA42F0
:0405C10022222222AE
:0405C200222DAA83B9
:0405C300AAAB22229B
:0405C4002222236A62
:0405C5005AAA8C1290
:0405C600AAD2222271
:0405C7002222359A1D
:0405C800AAA532228C
:0405C900912222BA9F
:0405CA0022222CAA13
:0405CB00A97AA72240
:0405CC00222222B90C
:0405CD002225AA71C8
:0405CE002217AA62E4
:0405CF0022222222A0
:0405D000222222229F
:0405D10021B9AA940E
:0405D200A732222208
:0405D300222226AA10
:0405D400812222223C
:0405D500222226AA0E
:0405D600AAB2222281
:0405D7001111111AD3
:0405D80021111111CB
:0405D9002239AAB267
:0405DA002222222295
:0405DB00222EAA82A0
:0405DC00AA622222CB
:0405DD00BBBB59AAA1
:0405DE0017AAAAEDC1
:0405DF00A62222220C
:0405E000BBBE9AAA5A
:0405E1009AAA9EBB79
:0405E2009322222B13
:0405E30022222BAAFB
:0405E400AAAAA422F9
:0405E5002222222785
:0405E6002225AA72AE
:0405E7002217AA62CB
:0405E8002222222287
:0405E9002222222286
:0405EA0067AAAAD280
:0405EB00AA9EDBBB2E
:0405EC00222222EABB
:0405ED007122222233
:0405EE00222226AAF5
:0405EF00AAB2222268
:0405F0007878777A26
:0405F1002D88787861
:0405F2002239AAC23E
:0405F300222222227C
:0405F4002228AA729D
:0405F5009B22222201
:0405F600AAAAAAAA59
:0405F700235AAAAA2F
:0405F800B2222222E7
:0405F900AAAAAAA858
:0405FA00B8AAAAAA47
:0405FB009322222203
:0405FC0022222BAAE2
:0405FD00AAAAE222A2
:0405FE00222222246F
:0405FF002225AA7196
:040600002218AA62B0
:04060100222222226D
:04060200222222226C
:04060300AAAA9B22E2
:04060400AAAAAAAA4A
:040605002222221675
:040606008122222209
:04060700222226AADB
:04060800AAB222224E
:04060900AAAAAAAA45
:04060A002EAAAAAAC0
:04060B002239AAB234
:04060C002222222262
:04060D00223AAA6281
:04060E001222222270
:04060F00AAAAA98664
:04061000222CE99A15
:04061100222222225D
:04061200AAAA97D128
:0406130021B79AAAC7
:0406140081222222FB
:0406150022222C99D8
:04061600E8984222FC
:040617002222222158
:0406180022269952AB
:04061900221E99B252
:04061A002222222254
:04061B002222222253
:04061C00A986122277
:04061D004E99AAAA9E
:04061E002222222250
:04061F00E22222228F
:0406200022222D99CC
:0406210098C2222237
:040622009898989874
:0406230026989898E5
:04062400223899429D
:040625002222222249
:0406260022B988422B
:040627002222222247
:040628006666B4222C
:04062900222221BBAD
:04062A002222222244
:04062B0066DB322236
:04062C0022223BD675
:04062D001222222251
:04062E002222211152
:04062F002111222251
:04063000222222223E
:04063100222111125F
:04063200222111125E
:04063300222222223B
:04063400222222223A
:04063500B4222222A7
:04063600221BD66647
:040637002222222237
:040638001222222246
:040639002222211147
:04063A001112222255
:04063B001111111177
:04063C002111111166
:04063D002221112243
:04063E002222222230
:04063F002211112251
:04064000222222222E
:04064100222222222D
:04064200222222222C
:04064300222222222B
:04064400222222222A
:040645002222222229
:040646002222222228
:040647002222222227
:040648002222222226
:040649002222222225
:04064A002222222224
:04064B002222222223
:04064C002222222222
:04064D002222222221
:04064E002222222220
:04064F00222222221F
:04065000222222221E
:04065100222222221D
:04065200222222221C
:04065300222222221B
:04065400222222221A
:040655002222222219
:040656002222222218
:040657002222222217
:040658002222222216
:040659002222222215
:04065A002222222214
:04065B002222222213
:04065C002222222212
:04065D002222222211
:04065E002222222210
:04065F00222222220F
:04066000222222220E
:04066100222222220D
:04066200222222220C
:04066300222222220B
:04066400222222220A
:040665002222222209
:040666002222222208
:040667002222222207
:040668002222222206
:040669002222222205
:04066A002222222204
:04066B002222222203
:04066C002222222202
:04066D002222222201
:04066E002222222200
:04066F0022222222FF
:0406700022222222FE
:0406710022222222FD
:0406720022222222FC
:0406730022222222FB
:0406740022222222FA
:0406750022222222F9
:0406760022222222F8
:0406770022222222F7
:0406780022222222F6
:0406790022222222F5
:04067A0022222222F4
:04067B0022222222F3
:04067C0022222222F2
:04067D0022222222F1
:04067E0022222222F0
:04067F0022222222EF
:0406800022222222EE
:0406810022222222ED
:0406820022222222EC
:0406830022222222EB
:0406840022222222EA
:0406850022222222E9
:0406860022222222E8
:0406870022222222E7
:0406880022222222E6
:0406890022222222E5
:04068A0022222222E4
:04068B0033331222D1
:04068C0021333333B0
:04068D0022213312E1
:04068E0013122222FF
:04068F00333333329C
:0406900013333333BA
:0406910033333312BA
:0406920012213333CB
:040693003333333397
:0406940033122211EA
:040695003333333395
:0406960022223333B6
:0406970022222331C7
:0406980021312222C8
:0406990022213312D5
:04069A0013122222F3
:04069B0022333122B3
:04069C0022222222D2
:04069D0021333122B2
:04069E0033333312AD
:04069F0011213333BF
:0406A00022222133BE
:0406A10032133122BD
:0406A2003333333388
:0406A30022133333B8
:0406A400AAAA81225B
:0406A50024AAAAAA2F
:0406A6002217AA72FB
:0406A7006A71222230
:0406A800AAAAAAA1AF
:0406A900EAAAAAAA65
:0406AA00AAAAAA72DC
:0406AB00822BAAAA4A
:0406AC00AAAAAAAAA2
:0406AD00AA821D7987
:0406AE00AAAAAAAAA0
:0406AF0012229AAACF
:0406B0002222DAA880
:0406B1002BA912223D
:0406B200222EAA82C8
:0406B300DA812222A4
:0406B4002B9AA722B4
:0406B50022222222B9
:0406B60023AAAE12B3
:0406B700AAAAAA91B0
:0406B8009123AAAA36
:0406B900222226AA29
:0406BA00A3CAAC2201
:0406BB00AAAAAAAA93
:0406BC00225AAAAA6A
:0406BD00778A822294
:0406BE0023E7777740
:0406BF00225AAAE22F
:0406C0006A72222216
:0406C10099999981E9
:0406C2005999999A0F
:0406C300777E9A7232
:0406C400822477779E
:0406C5008777778A32
:0406C60099E26AAAA1
:0406C700999A9999CA
:0406C800D222899918
:0406C90022219AAAA6
:0406CA002CA9222213
:0406CB00226AAA8273
:0406CC00DA8122228B
:0406CD002EAAAE2281
:0406CE0022222222A0
:0406CF0024AAAAC2ED
:0406D00077778A812D
:0406D1009123E77713
:0406D2002222CAAA6C
:0406D30083CAAC2208
:0406D4009AA99999AD
:0406D5002269999964
:0406D60022DA812281
:0406D70022122222A7
:0406D8002BAA8AE2DD
:0406D9006A722222FD
:0406DA008111111267
:0406DB001111116A7E
:0406DC0022125A721A
:0406DD007222122251
:0406DE001222226A58
:0406DF0011139A83D6
:0406E000117A511129
:0406E1008122111150
:0406E2002226A97AA9
:0406E3002BA92222FB
:0406E4002CA99A8221
:0406E500BA82222291
:0406E600CA98AE22DE
:0406E7002222222287
:0406E8002CAA8A723C
:0406E9002222BA818E
:0406EA009121222216
:0406EB0022239A8AA2
:0406EC0012BA9C2280
:0406ED00DAA311116A
:0406EE0022111111B3
:0406EF0022BA822287
:0406F000222222227E
:0406F10039A55AE2EB
:0406F2006A722222E4
:0406F300822222221B
:0406F400222222BAE2
:0406F50022226A72E1
:0406F6008222222218
:0406F7002222226A2F
:0406F800222C9AB264
:0406F90022EA52227D
:0406FA00AD222222E9
:0406FB002239A639C1
:0406FC002CA92222E1
:0406FD0018A56A8250
:0406FE00DA82222258
:0406FF007A5EA72256
:04070000222222226D
:04070100249AD9ACB1
:040702002222BA9164
:0407030091222222FB
:04070400221EA8DA2F
:0407050022CAAC2236
:04070600BAA1222250
:040707002222222266
:0407080022BA81226E
:040709002222222264
:04070A00EA816A72A4
:04070B006A712222CB
:04070C008222222201
:04070D00222222BAC8
:04070E0022226A72C7
:04070F0082222222FE
:04071000222222DAA5
:0407110022239AB253
:0407120022EA522263
:04071300A9122222E3
:04071400226A93259D
:040715002BA92222C8
:040716005A91BA82B8
:04071700BA8122225F
:04071800993EA7223D
:040719002222222C4A
:04071A0023AA35A732
:04071B002222BA815B
:04071C0091222222E2
:04071D0022DA944AFE
:04071E0022CAAC221D
:04071F00BAA1222237
:04072000222222224D
:0407210011DA822245
:04072200221111117E
:04072300AAC26AE21A
:040724006A72222DA6
:0407250082222222E8
:04072600222222DA8F
:0407270011115A72E0
:040728007222111117
:040729001222226A0C
:04072A0022227A8489
:04072B0022EA52224A
:04072C009AD2222219
:04072D00219A622487
:04072E002CA92222AE
:04072F00AAB26A827E
:04073000DA81222B1D
:04073100A62EAE2220
:04073200B2222227A6
:0407330024AA339A27
:040734001111BA9154
:0407350091221111EB
:04073600249A62CAD5
:0407370022CAAC2204
:04073800BAA322221C
:040739002222222234
:04073A00889A8122F6
:04073B002268888820
:04073C00A6225AE2B5
:04073D006A72224971
:04073E0082222222CF
:04073F00222222BA96
:0407400088879A729A
:040741008222588830
:040742007EEEE58AD8
:0407430022223EA987
:0407440022EA622221
:04074500EA912222F1
:0407460026A932228C
:040747002BA9222296
:04074800A522DA828A
:04074900BA82223915
:04074A009327AE2221
:04074B00E22222CABA
:04074C002CAA425A37
:04074D0088889A817D
:04074E009122688804
:04074F0018A722BA0B
:0407500022BAA42203
:04075100BAA1222205
:04075200222222221B
:04075300AAAA8222AA
:0407540022EAAAAA41
:0407550072226AE2C0
:040756006A72218A18
:0407570082222222B6
:04075800222222DA5D
:04075900AAAAAA722C
:04075A0072217AAAE4
:04075B00AAAAAAAAF2
:04075C0022222C9A8F
:04075D0022EA522218
:04075E0039A6222274
:04075F0039A6222273
:040760002CA922227C
:0407610082226A8204
:04076200BA82217ABC
:04076300522EA72249
:040764009C2221EAC8
:04076500249AC23AD6
:04076600AAAAAA8110
:0407670091225AAAD7
:040768005A9322CAB4
:0407690022CAAC22D2
:04076A00BAA12222EC
:04076B002222222202
:04076C0022BA81220A
:04076D002221221211
:04076E0032225A7267
:04076F006A7225A9DC
:04077000812222229E
:04077100222222BA64
:0407720021226A7264
:0407730082222212AA
:040774006C44C35AB4
:04077500222239A85B
:0407760022EA5222FF
:040777001EA9122283
:040778005A9C111165
:040779002BA9122274
:04077A004222DA82BB
:04077B00BA8126A970
:04077C00122EA72270
:04077D00A72224A9E2
:04077E0024AAC225C2
:04077F001222BA91F7
:04078000912221227F
:04078100AAB222BA3C
:0407820022B9AC2BC1
:04078300BAA32222D1
:0407840022222222E9
:0407850022BA8222F0
:0407860022222222E7
:0407870022226AE2DE
:040788006A72CAAB1C
:040789008222222284
:04078A00222222DA2B
:04078B0022226A724A
:04078C007222222291
:04078D002222226A98
:04078E002222DA94B5
:04078F0022EA5222E6
:0407900089AA6222AE
:040791009A9989891F
:040792002CA9222349
:040793002222DA82C2
:04079400DA82C9A696
:040795002227AE2247
:040796009AC227A636
:0407970023AA42242B
:040798002222BA81DE
:040799009122222265
:04079A00A52222CAA8
:04079B00224AA41931
:04079C00BAA12222BA
:04079D0022222222D0
:04079E0022BA8122D8
:04079F0022222222CE
:0407A00022225AE2D5
:0407A1006AE39A521B
:0407A200822222226B
:0407A300222222BA32
:0407A40022225A7241
:0407A5007222222278
:0407A6002222226A7F
:0407A7002222EA819F
:0407A80022EA6222BD
:0407A900999A912266
:0407AA00AA9A9A9AD3
:0407AB002BA922252F
:0407AC0022226A8219
:0407AD00BA818A7211
:0407AE002227AE222E
:0407AF00EA72CA938D
:0407B0002CAA42220B
:0407B1002222BA91B5
:0407B200912222224C
:0407B300812222BAC3
:0407B40022BA9CEADF
:0407B500BAA12222A1
:0407B60022222222B7
:0407B70022BA8222BE
:0407B80022222222B5
:0407B90022226AE2AC
:0407BA006A77A812A0
:0407BB008222222252
:0407BC00222222DAF9
:0407BD0022226A7218
:0407BE00822222224F
:0407BF002222226A66
:0407C00022228A5215
:0407C10022EA5222B4
:0407C2001149A62211
:0407C300A52121212A
:0407C4002CA9223901
:0407C5002222DA8290
:0407C600BA8EA9122C
:0407C7002227A7221C
:0407C80039ACEA520C
:0407C900249A42220A
:0407CA002222BA81AC
:0407CB009122222233
:0407CC00C22222CA59
:0407CD0022CA97A9FC
:0407CE00BAA1222288
:0407CF00222222229E
:0407D000BC5A81226C
:0407D10023BCBCBCCD
:0407D20022225AE1A4
:0407D3006A9A9C2260
:0407D400812222223A
:0407D500222222BA00
:0407D600BCBCEA724B
:0407D7008223BCBC01
:0407D800222222DADD
:0407D90022218A62ED
:0407DA0022EA52229B
:0407DB002225A932F8
:0407DC009322222220
:0407DD002BA9225AC8
:0407DE002222DA8277
:0407DF00BA9A9B2205
:0407E000222EA722FC
:0407E10025A999327B
:0407E20024AAC22261
:0407E300CBCC6A9180
:0407E4009123CBCBC7
:0407E500222222BAF0
:0407E60022B9AAA6E4
:0407E700BAA322226D
:0407E8002222222285
:0407E900AAAA912205
:0407EA0025AAAAAAE8
:0407EB0022225A72FA
:0407EC006AAA622271
:0407ED009222222210
:0407EE00222222DAC7
:0407EF00AAAAAA8286
:0407F0008227AAAA08
:0407F1002222226A34
:0407F200222CAAB259
:0407F30022EA522282
:0407F4002223AAE230
:0407F5005222222248
:0407F6002BA924AA5D
:0407F70022226A92BE
:0407F800DAAA522205
:0407F9002227A722EA
:0407FA00249AAE226D
:0407FB0024AAC22248
:0407FC00AAAAAA916A
:0407FD009125AAAAEE
:0407FE00222222CAC7
:0407FF0022CAAA72EE
:04080000BAA1222255
:04080100222222226B
:04080200EEEE622292
:040803002B7EEEEE6C
:040804002222BED21C
:04080500BEE5222208
:040806006222222226
:04080700222222CEB9
:04080800EEEEEED250
:04080900622DEEEE80
:04080A00222222BEC6
:04080B00222BE512A5
:04080C00226EB22284
:04080D0022226E51E4
:04080E00322222224E
:04080F0023E52BEEC4
:040810002222CE6270
:04081100C7E52222F3
:040812002226ED228B
:04081300226EE3224C
:04081400235E32220B
:04081500EEEEEE52C3
:04081600512BEEEE86
:040817002222224E29
:04081800224EEE126C
:040819004EE1222268
:04081A002222222252
:04081B002222222251
:04081C002222222250
:04081D00222222224F
:04081E00222222224E
:04081F00222222224D
:04082000222222224C
:04082100222222224B
:04082200222222224A
:040823002222222249
:040824002222222248
:040825002222222247
:040826002222222246
:040827002222222245
:040828002222222244
:040829002222222243
:04082A002222222242
:04082B002222222241
:04082C002222222240
:04082D00222222223F
:04082E00222222223E
:04082F00222222223D
:04083000222222223C
:04083100222222223B
:04083200222222223A
:040833002222222239
:04083400A000000020
:04083500018002C07C
:0408360000010010AD
:0408370056B57FFF34
:0408380052935AD6A7
:040839003DA94E7116
:04083A00354641CB33
:04083B002CE2312555
:04083C004A0E24A09C
:04083D0045ED4E51E6
:04083E008000396895
:04083F00E100042AA6
:04084000E2000000D2
:040841007D12121200
:0408420000640064EA
:040843006028000029
:04084400250000008B
:04084500004600B4B5
:040846006028010124
:04084700004100D29A
:04084800002A01324F
:04084900006400B295
:04084A0000001E018B
:00000001FF