:02000000BDC57C
:02000100C59C9C
:02000200ADC58A
:020003004A4A67
:020004008C313D
:020005007394F2
:020006007B7B02
:020007004A5A53
:02000800214A8B
:020009005A6B30
:02000A008C3A2E
:02000B004A7B2E
:02000C006B8403
:02000D0084422B
:02000E003A6353
:02000F005A7B1A
:020010007B3142
:02001100315A62
:02001200637B0E
:02001300734236
:02001400526335
:02001500525A3D
:02001600294A75
:0200170021299D
:020018002121A4
:02001900841051
:02001A006B84F5
:02001B00B5BD71
:02001C009494BA
:02001D005A8CFB
:02001E00A5B586
:02001F00BD7BA7
:0200200094B595
:020021005A5A29
:02002200424258
:02002300314268
:02002400424256
:02002500523156
:02002600314A5D
:020027008C94B7
:02002800BD6BAE
:0200290084ADA4
:02002A007384DD
:02002B00B542DC
:02002C0073A5BA
:02002D00CEDE25
:02002E00D69466
:02002F0084BD8E
:02003000A5BD6C
:02003100A56BBD
:020032005A8CE6
:020033008CA59A
:02003400CE5AA2
:020035008CBD80
:02003600CEDE1C
:020037007BA5A7
:020038005A7BF1
:020039004A4239
:02003A00293A61
:02003B003A3A4F
:02003C003A295F
:02003D003A3A4D
:02003E003A4A3C
:02003F008473C8
:02004000CE6B85
:02004100ADCE42
:02004200ADB55A
:02004300E67B5A
:02004400A5D63F
:02004500D6E6FD
:02004600E69C36
:020047008CCE5D
:02004800DEF7E1
:02004900E69C33
:02004A008CCE5A
:02004B00D6EFEE
:02004C00E69438
:02004D008CCE57
:02004E00DEEFE3
:02004F00F79C1C
:02005000A5DE2B
:02005100DEF7D8
:02005200D69C3A
:020053007BBD73
:02005400A5BD48
:020055004A6BF4
:02005600103A5E
:02005700293A44
:02005800211075
:0200590000198C
:02005A00212162
:02005B00190882
:02005C00001989
:02005D0019196F
:02005E004A0056
:02005F00193A4C
:020060006B84AF
:020061008C3AD7
:020062003A73EF
:02006300ADCE20
:02006400C57362
:0200650063A591
:020066008CAD5F
:02006700C54A88
:02006800529CA8
:020069009CC534
:02006A00C55A75
:02006B0063A58B
:02006C00ADCE17
:02006D004A73D4
:02006E0000315F
:02006F005A7BBA
:02007000CE2997
:020071006BAD75
:02007200ADCE11
:02007300CE5A63
:0200740063AD7A
:0200750094B540
:020076005A52DC
:02007700194A24
:02007800192944
:0200790029005C
:02007A00002163
:02007B00293A20
:02007C00630817
:02007D0021520E
:02007E00738C81
:02007F008C42B1
:020080004273C9
:02008100738C7E
:020082007B42BF
:020083003163E7
:02008400738C7B
:02008500BD427A
:02008600639C79
:02008700CEE6C3
:02008800EF8CFB
:020089008CD613
:02008A00D6EFAF
:02008B00D68C11
:02008C0073BD42
:02008D00C5DECE
:02008E00DE7B17
:02008F007BC52F
:02009000D6E6B2
:02009100E68403
:020092007BC52C
:02009300D6EFA6
:02009400DE8C00
:0200950073C531
:02009600CEE6B4
:02009700E684FD
:0200980084CE14
:02009900C5DEC2
:02009A00E67B03
:02009B0084CE11
:02009C00C5DEBF
:02009D00D67B10
:02009E0073BD30
:02009F00BDD6CC
:0200A000D67315
:0200A1006BB53D
:0200A20094AD1B
:0200A300B54A5C
:0200A4005A9C64
:0200A5006B846A
:0200A6004A31DD
:0200A70008311E
:0200A800425ABA
:0200A9005A21DA
:0200AA00214AE9
:0200AB00192911
:0200AC007300DF
:0200AD003A5ABD
:0200AE004252BC
:0200AF006B19CB
:0200B0003152CB
:0200B1003A4AC9
:0200B20029190A
:0200B300082122
:0200B400081032
:0200B500080041
:0200B600000840
:0200B700080837
:0200B80008003E
:0200B90000083D
:0200BA00080834
:0200BB0008003B
:0200BC0000083A
:0200BD004A4AAD
:0200BE00BD295A
:0200BF0084B506
:0200C000C5D6A3
:0200C100D68CDB
:0200C20084BDFB
:0200C300BDCEB0
:0200C400A57B1A
:0200C5004A8C63
:0200C6007B9429
:0200C700A53A58
:0200C800428470
:0200C9008CADFC
:0200CA00B54A35
:0200CB005A9445
:0200CC006B8C3B
:0200CD00733A84
:0200CE002152BD
:0200CF00739428
:0200D0006B4A79
:0200D1002952B2
:0200D2002131DA
:0200D30021000A
:0200D40000101A
:0200D500293AC6
:0200D6003110E7
:0200D700002106
:0200D8001021F5
:0200D9002900FC
:0200DA0000190B
:0200DB00293AC0
:0200DC003A08E0
:0200DD000829F0
:0200DE0042528C
:0200DF005A21A4
:0200E000294AAB
:0200E1001021EC
:0200E2002900F3
:0200E3000821F2
:0200E4001921E0
:0200E5003108E0
:0200E6001929D6
:0200E7002931BD
:0200E8001919E4
:0200E9000810FD
:0200EA002121D2
:0200EB001910EA
:0200EC000819F1
:0200ED001910E8
:0200EE001008F8
:0200EF000819EE
:0200F0004A5A6A
:0200F1003A21B2
:0200F2001931C2
:0200F3009494E3
:0200F400A57BEA
:0200F5008CA5D8
:0200F600BDB596
:0200F7007B9CF0
:0200F800527B39
:0200F9003A4289
:0200FA00941957
:0200FB005A8425
:0200FC00637B24
:0200FD00843A43
:0200FE00426B53
:0200FF005A7B2A
:020100007B3151
:02010100315A71
:020102005A732E
:020103005A3A66
:020104003A4A75
:020105003A3A84
:0201060031299D
:020107002131A4
:020108003A3A81
:02010900522181
:02010A00314A78
:02010B00B5C578
:02010C00D69487
:02010D009CC58F
:02010E00525A43
:02010F00732952
:02011000526B30
:02011100B5B582
:020112004A9C05
:020113003A4A66
:020114004A4A55
:020115009C3A12
:020116007394E0
:02011700A5B58C
:020118009C84C5
:02011900638CF5
:02011A008C9CBB
:02011B00BD52D3
:02011C0073ADC1
:02011D00BDD64D
:02011E00D68485
:02011F0084BD9D
:02012000D6EF18
:02012100F79C49
:02012200A5DE58
:02012300CEE626
:02012400CE9477
:020125008CBD8F
:02012600949CA7
:020127004A6329
:02012800314A5A
:0201290031297A
:02012A00292189
:02012B0042424E
:02012C00422966
:02012D0031425D
:02012E0042424B
:02012F0052423A
:02013000634A20
:02013100526B0F
:020132005A5A17
:02013300A531F4
:020134006B94CA
:02013500CEDE1C
:02013600D68C65
:020137007BC586
:02013800CEE611
:02013900E68C52
:02013A0084CE71
:02013B00C5E617
:02013C00E68457
:02013D008CCE66
:02013E00DEF7EA
:02013F00EF943B
:0201400094D653
:02014100DEF7E7
:02014200D69451
:020143007BBD82
:020144008CA588
:02014500295A35
:0201460000199E
:0201470021296C
:02014800290884
:0201490000199B
:02014A00292961
:02014B003A0870
:02014C00193167
:02014D00101987
:02014E0073003C
:02014F0031631A
:020150009CAD64
:02015100CE637B
:0201520073AD8B
:020153008CAD71
:020154006352F4
:02015500104A4E
:02015600425A0B
:0201570084081A
:02015800216321
:02015900ADC532
:02015A009C6B9C
:02015B00427BE5
:02015C00526BE4
:02015D0031214E
:02015E0000217E
:02015F003A5212
:02016000AD10E0
:020161005294B6
:02016200ADCE20
:02016300B56B7A
:020164005294B3
:02016500425AFC
:0201660029105E
:0201670000197D
:0201680010196C
:02016900100084
:02016A00001083
:02016B0008107A
:02016C003A0057
:02016D0008295F
:02016E006B84A0
:02016F00C54287
:020170006BA57D
:02017100ADCE11
:02017200AD6B73
:020173004A94AC
:02017400A5C51F
:02017500C56360
:020176005AA588
:02017700BDD6F3
:02017800E6732C
:0201790084CE32
:02017A00D6EFBE
:02017B00EF8C07
:02017C008CD61F
:02017D00CEDED4
:02017E00DE841D
:02017F007BC53E
:02018000BDD6EA
:02018100DE732B
:020182007BC53B
:02018300BDD6E7
:02018400E66B28
:0201850084CE26
:02018600CEE6C3
:02018700E67B15
:020188007BCE2C
:02018900ADC502
:02018A00DE5A3B
:02018B007BC532
:02018C00BDD6DE
:02018D00DE6B27
:02018E007BCE26
:02018F00BDD6DB
:02019000D67324
:020191006BBD44
:02019200A5BD09
:02019300945A7C
:02019400317BBD
:02019500738C69
:02019600633ACA
:02019700214AFB
:020198004252D1
:020199006B19E0
:02019A003A5ACF
:02019B00213110
:02019C003A0027
:02019D0008292F
:02019E00313AF4
:02019F005210FC
:0201A000193A0A
:0201A100293AF9
:0201A20031101A
:0201A300102921
:0201A400101930
:0201A500080848
:0201A60000084F
:0201A700000056
:0201A80008004D
:0201A90000084C
:0201AA00080843
:0201AB00210031
:0201AC00001938
:0201AD00848C40
:0201AE00CE5A27
:0201AF008CBD05
:0201B000C5D6B2
:0201B100D68CEA
:0201B2008CC5FA
:0201B300B5C5D0
:0201B400BD7319
:0201B50063A540
:0201B600A5C5DD
:0201B700C5631E
:0201B8005A9C4F
:0201B9007BA524
:0201BA00A53A64
:0201BB0042847C
:0201BC007BA521
:0201BD00CE4230
:0201BE006BA52F
:0201BF008CAD05
:0201C000845267
:0201C100316BA0
:0201C200425A9F
:0201C3006B10BF
:0201C400214ACE
:0201C500738C39
:0201C600844A69
:0201C700426B89
:0201C8006B7B4F
:0201C9008C3A6E
:0201CA004A7376
:0201CB006B8443
:0201CC00843A73
:0201CD00426B83
:0201CE00738C30
:0201CF006B4A79
:0201D000315AA2
:0201D100738C2D
:0201D2005A527F
:0201D300294AB7
:0201D4005A6B64
:0201D5007B426B
:0201D600527362
:0201D700293AC3
:0201D8004210D3
:0201D900213AC9
:0201DA001921E9
:0201DB00100012
:0201DC00001011
:0201DD001919EE
:0201DE002900F6
:0201DF000821F5
:0201E000738C1E
:0201E1004A4290
:0201E200193AC8
:0201E3001921E0
:0201E4006300B6
:0201E500526363
:0201E600BDBD9D
:0201E700DEAD8B
:0201E800C5DE72
:0201E9009494EC
:0201EA0084731C
:0201EB005A7B3D
:0201EC0052635C
:0201ED0084315B
:0201EE004A7352
:0201EF005A7341
:0201F0007B3161
:0201F1003A636F
:0201F200636B3D
:0201F3004A3A86
:0201F400294A96
:0201F5003129AE
:0201F6002919C5
:0201F7001029CD
:0201F800424281
:0201F90084215F
:0201FA00527B36
:0201FB008C9CDA
:0201FC0094630A
:0201FD006B8C09
:0201FE00B5BD8D
:0201FF00319439
:020200002131AA
:020201007B7B05
:02020200946BFB
:020203008494E1
:020204008484F0
:02020500B563DF
:020206007BA5D6
:0202070094A5BC
:02020800B563DC
:0202090073A5DB
:02020A009CB5A1
:02020B00C56BC1
:02020C0073ADD0
:02020D00C5D654
:02020E00E68C7C
:02020F009CD67B
:02021000D6E630
:02021100E69C69
:0202120094CE88
:02021300B5CE66
:02021400C5849F
:0202150084B5AE
:020216006B7B00
:020217003A4A61
:02021800213A89
:02021900312191
:02021A00292198
:02021B003A3A6D
:02021C003A297D
:02021D00294274
:02021E0042425A
:02021F003A2182
:02022000213A81
:02022100293181
:02022200292988
:02022300631066
:02022400315A4D
:02022500ADBD6D
:02022600DE7B7D
:0202270084C58C
:02022800CEE620
:02022900DE8471
:02022A007BC592
:02022B00C5DE2E
:02022C00E67B6F
:02022D0084CE7D
:02022E00D6EF09
:02022F00E68C5B
:0202300084CE7A
:02023100D6EF06
:02023200E68C58
:020233008CCE6F
:0202340094AD87
:02023500425A2B
:02023600082995
:020237004A6318
:02023800522949
:02023900194268
:02023A004A5A1E
:02023B006B2135
:02023C003A5A2C
:02023D00213A64
:02023E00AD0011
:02023F006394C6
:02024000B5CE39
:02024100B57B8B
:020242006B9CB3
:020243004A5A15
:0202440029216E
:0202450000199E
:02024600192974
:020247007B003A
:02024800316320
:0202490094B56A
:02024A006B63E4
:02024B00315A26
:02024C0019296E
:02024D0021008E
:02024E0000109E
:02024F0021315B
:02025000840028
:020251003A6B06
:020252008C9C82
:020253008452D3
:020254003A6B03
:020255003A422B
:0202560019107D
:02025700001095
:0202580010088C
:02025900100093
:02025A00001092
:02025B00101081
:02025C00290077
:02025D00082176
:02025E005A6BD9
:02025F00AD31BF
:02026000528CBE
:02026100ADCE20
:02026200CE6B61
:0202630063AD89
:02026400BDDEFD
:02026500D6734E
:0202660073BD66
:02026700B5D60A
:02026800CE6B5B
:020269006BB573
:02026A00BDD6FF
:02026B00E66B40
:02026C0084CE3E
:02026D00CEE6DB
:02026E00E67B2D
:02026F0084CE3B
:02027000D6EFC7
:02027100D68C29
:020272006BB56A
:02027300ADCE0E
:02027400DE6347
:0202750073BD57
:02027600BDD6F3
:02027700EF6B2B
:0202780084CE32
:02027900BDDEE8
:02027A00CE7341
:02027B0063B569
:02027C00BDDEE5
:02027D00DE6B36
:02027E0073BD4E
:02027F00B5CEFA
:02028000BD635C
:0202810052A584
:02028200C5DED7
:020283009C7B62
:020284003A7BC3
:02028500739470
:02028600733AC9
:02028700215202
:02028800526BB7
:020289005A21F8
:02028A00194217
:02028B003142FE
:02028C0021103F
:02028D0000105F
:02028E00212924
:02028F0052001B
:02029000214209
:020291004252D7
:020292005A29E7
:020293003A4AE5
:02029400081050
:02029500100057
:0202960000085E
:02029700080855
:0202980008005C
:0202990000085B
:02029A00080852
:02029B004A0017
:02029C002142FD
:02029D00ADBDF5
:02029E00D68404
:02029F0094C504
:0202A000C5D6C1
:0202A100D68CF9
:0202A20084C511
:0202A300B5CED6
:0202A400CE7317
:0202A5006BAD3F
:0202A600ADCEDB
:0202A700B5633D
:0202A8004A8C7E
:0202A900638C64
:0202AA008C19AD
:0202AB002163CD
:0202AC007BA530
:0202AD00BD3A58
:0202AE00529468
:0202AF0094BDFC
:0202B000A55255
:0202B100428485
:0202B20084A521
:0202B300AD4A52
:0202B400528C6A
:0202B5009CBDEE
:0202B600A5633E
:0202B7004A8477
:0202B8009CB5F3
:0202B900A55A44
:0202BA0042847C
:0202BB0094B5F8
:0202BC00C55229
:0202BD006BA52F
:0202BE00B5CEBB
:0202BF00B57315
:0202C000639C3D
:0202C1008CA50A
:0202C200B55233
:0202C300639C3A
:0202C4009CB5E7
:0202C500846B48
:0202C6003A6B91
:0202C700738C36
:0202C8005A4298
:0202C900194AD0
:0202CA0042529E
:0202CB006B19AD
:0202CC003A5A9C
:0202CD004A5293
:0202CE004229C3
:0202CF00193ADA
:0202D0006B8C35
:0202D100633A8E
:0202D2002952AF
:0202D3002129DF
:0202D400100810
:0202D500001017
:0202D6002121E4
:0202D700941081
:0202D800849C04
:0202D900CEC590
:0202DA00CEADA7
:0202DB00ADCEA6
:0202DC004A5284
:0202DD006B298B
:0202DE00315A93
:0202DF005A6B58
:0202E000943157
:0202E100527B4E
:0202E200849402
:0202E3004A5A75
:0202E4002142B5
:0202E5002929C5
:0202E6003110D5
:0202E7000831DC
:0202E800636B46
:0202E9009C3A3D
:0202EA00638C23
:0202EB0073841A
:0202EC004A5274
:0202ED00213AB4
:0202EE00737328
:0202EF00A56305
:0202F00094A5D3
:0202F1002121C9
:0202F200BD103D
:0202F3009CB5B8
:0202F400CED664
:0202F500ADADAD
:0202F600739CF7
:0202F70094ADC4
:0202F800BD6BDC
:0202F90073A5EB
:0202FA0094A5C9
:0202FB00B55AF2
:0202FC00639C01
:0202FD00C5DE5C
:0202FE00EF8C83
:0202FF009CD68B
:02030000DEEF2E
:02030100DEA577
:0203020094CE97
:02030300B5CE75
:020304007B84F8
:020305003A6B51
:020306003A4A71
:020307004210A2
:02030800294288
:02030900423A76
:02030A00293197
:02030B00313A85
:02030C003A2194
:02030D00213A93
:02030E003A3182
:02030F0031219A
:02031000213199
:02031100293190
:0203120029219F
:02031300631075
:02031400315A5C
:02031500ADBD7C
:02031600E6738C
:020317008CCE8A
:02031800CEE62F
:02031900DE8480
:02031A007BC5A1
:02031B00C5E635
:02031C00E67B7E
:02031D0084C595
:02031E00CEE629
:02031F00DE847A
:020320007BC59B
:02032100C5DE37
:02032200DE7B80
:020323007BC598
:02032400A5BD75
:020325005A6B11
:0203260019427A
:020327007394CD
:020328008C4AFD
:020329003A6B2D
:02032A006B84E2
:02032B00AD31F2
:02032C006394D8
:02032D008CA59D
:02032E00CE52AD
:02032F0073B5A4
:02033000BDDE30
:02033100848CBA
:02033200426B1C
:02033300192986
:020334001900AE
:020335000010B6
:0203360010199C
:02033700840040
:020338004A7306
:020339006B84D3
:02033A004A4235
:02033B0010317F
:02033C0010218E
:02033D001900A5
:02033E000010AD
:02033F00192182
:020340004A0071
:02034100083181
:020342006B84CA
:020343004A3A34
:02034400103A6D
:0203450021296C
:0203460019009C
:0203470000199B
:02034800101093
:020349000800AA
:02034A000010A1
:02034B00101090
:02034C0021008E
:02034D00001995
:02034E005263F8
:02034F00BD29C6
:020350006B9CA4
:02035100A5C540
:02035200C56381
:0203530063AD98
:02035400738CA8
:02035500A529D8
:020356004A8CCF
:02035700BDD611
:02035800C57B63
:020359006BB582
:02035A00B5C527
:02035B00D66B5F
:02035C0073BD6F
:02035D00CEE6EA
:02035E00E67B3C
:02035F0084CE4A
:02036000CEE6E7
:02036100DE8438
:0203620073BD69
:02036300B5D60D
:02036400DE6B4E
:020365006BBD6E
:02036600BDDEFA
:02036700E66B43
:0203680073C55B
:02036900CEEFD5
:02036A00DE7B38
:02036B006BBD68
:02036C00ADCE14
:02036D00DE5A56
:02036E0073C555
:02036F00CEE6D8
:02037000CE7B42
:020371005AAD83
:020372009CBD30
:02037300AD5289
:020374004A8CB1
:0203750063849F
:020376006B21F9
:02037700195219
:020378005A73B6
:020379004A2117
:02037A00002958
:02037B004A6BCB
:02037C004A2114
:02037D00083145
:02037E00314A02
:02037F005A081A
:02038000194220
:020381004A63CD
:0203820042290E
:0203830019312E
:02038400081956
:02038500100066
:0203860000086D
:0203870008105C
:02038800100063
:0203890000086A
:02038A00212927
:02038B009C00D4
:02038C00638C80
:02038D00C5D6D3
:02038E00D69403
:02038F0094CE0A
:02039000C5D6D0
:02039100D69400
:0203920084C520
:02039300BDD6D5
:02039400D67B16
:020395006BB546
:02039600ADCEEA
:02039700A5635C
:020398003A84A5
:020399007BA542
:02039A00A53A82
:02039B003A84A2
:02039C009CC5FE
:02039D00CE5A36
:02039E005AA55E
:02039F009CBD03
:0203A000CE523B
:0203A10063A552
:0203A2009CBD00
:0203A300BD5A41
:0203A4005A9C61
:0203A500A5C5EC
:0203A600AD6345
:0203A7004A8C7E
:0203A80094B50A
:0203A90094526C
:0203AA003173AD
:0203AB0084A527
:0203AC00E64227
:0203AD0084BD0D
:0203AE0094B504
:0203AF009C525E
:0203B000428485
:0203B100B5CEC7
:0203B200DE73F8
:0203B3007BBD10
:0203B400ADCECC
:0203B500CE6B0D
:0203B6006BAD2D
:0203B700B5D6B9
:0203B800E673EA
:0203B90094CEE0
:0203BA00CEDE95
:0203BB00B594F7
:0203BC0073A527
:0203BD00738C3F
:0203BE00844277
:0203BF003A738F
:0203C000739434
:0203C1007B3A85
:0203C2003163A5
:0203C3004252A4
:0203C4003119ED
:0203C500082905
:0203C6002121F3
:0203C70019001B
:0203C80008210A
:0203C90063636C
:0203CA00B54A32
:0203CB0094B5E7
:0203CC00CECE93
:0203CD009CA5ED
:0203CE006B942E
:0203CF006B734E
:0203D000944255
:0203D1005A844C
:0203D2008C9C01
:0203D300526373
:0203D400214ABC
:0203D500525A7A
:0203D600842978
:0203D7004A7367
:0203D80084940B
:0203D900845A44
:0203DA004A6B6C
:0203DB004A5A7C
:0203DC004A31A4
:0203DD003142AB
:0203DE002929CB
:0203DF00732188
:0203E0006B733D
:0203E1008C8C02
:0203E200737333
:0203E3004A6B63
:0203E400C5CE84
:0203E500BD9CBD
:0203E6007BA5F5
:0203E700ADBDAA
:0203E800A584EA
:0203E9006B9413
:0203EA008494F9
:0203EB008C5A2A
:0203EC004A7B4A
:0203ED00B5C594
:0203EE00E67BAC
:0203EF009CD69A
:0203F000DEEF3E
:0203F100EFA576
:0203F2009CD697
:0203F300CEDE5C
:0203F400AD94C6
:0203F5005A9418
:0203F60073840E
:0203F70063425F
:0203F800315280
:0203F900525A56
:0203FA00293A9E
:0203FB002131AE
:0203FC003121AD
:0203FD001929BC
:0203FE002929AB
:0203FF004A3181
:02040000214297
:020401002131A7
:020402006B6B22
:020403009C5209
:020404006394FF
:02040500ADC583
:02040600EF7392
:020407008CD691
:02040800CEE63E
:02040900DE848F
:02040A007BBDB8
:02040B00C5E644
:02040C00EF847B
:02040D0084CE9B
:02040E00C5E641
:02040F00EF8478
:0204100084CE98
:02041100B5D65E
:02041200CE6BAF
:020413006BB5C7
:02041400BDDE4B
:020415008C7BDE
:02041600316B48
:020417009CBD8A
:02041800C563BA
:0204190063A5D9
:02041A00A5C576
:02041B00CE63AE
:02041C0063ADCE
:02041D00BDDE42
:02041E00DE738B
:02041F007BC59B
:02042000B5CE57
:020421005A730C
:02042200214A6D
:020423001021A6
:020424003A009C
:0204250010299C
:02042600213182
:02042700AD0026
:020428006B94D3
:020429006373FB
:02042A00293A6D
:02042B000019B6
:02042C001019A5
:02042D002100AC
:02042E000010BC
:02042F00192191
:020430007B004F
:02043100426B1C
:020432008C9CA0
:020433005A5A13
:02043400214A5B
:0204350021297B
:020436002100A3
:020437000021A2
:020438001010A2
:020439000800B9
:02043A000010B0
:02043B001008A7
:02043C001900A5
:02043D000010AD
:02043E0021316A
:02043F00B50006
:020440005A94CC
:02044100A5C54F
:02044200B563A0
:020443005A94C9
:02044400526BF9
:0204450031196B
:02044600002193
:020447006373DD
:02044800C53AB3
:020449007BBD79
:02044A00C5D615
:02044B00CE7B66
:02044C006BBD86
:02044D00CEE6F9
:02044E00C57B6C
:02044F0063AD9B
:020450009CB559
:02045100CE5289
:0204520063AD98
:02045300A5C53D
:02045400D65A76
:020455005AAD9E
:02045600BDDE09
:02045700E66B52
:0204580073C56A
:02045900ADCE26
:02045A00DE5A68
:02045B006BBD77
:02045C00B5D613
:02045D00D66364
:02045E0063B584
:02045F00B5D610
:02046000CE6369
:020461005AAD92
:02046200A5C52E
:02046300A55A98
:020464004284D0
:02046500426BE8
:020466005A0832
:02046700003162
:020468006384AB
:02046900632905
:02046A00083A4E
:02046B005A84B1
:02046C007329F2
:02046D00194A2A
:02046E004A6BD7
:02046F00631018
:02047000104238
:020471004A6BD4
:02047200632104
:02047300294A14
:02047400102155
:0204750019006C
:0204760000087C
:02047700081962
:02047800290059
:02047900002160
:02047A006373AA
:02047B00BD3A88
:02047C007BAD56
:02047D00C5D6E2
:02047E00D68C1A
:02047F008CBD32
:02048000C5D6DF
:02048100D68C17
:0204820084BD37
:02048300B5CEF4
:02048400CE7335
:020485006BAD5D
:02048600ADCEF9
:02048700BD6353
:02048800529C84
:02048900ADCEF6
:02048A00CE633F
:02048B006BAD57
:02048C00ADCEF3
:02048D00B56355
:02048E004A948E
:02048F00ADCEF0
:02049000C56B3A
:0204910063A561
:0204920084A53F
:02049300C54A58
:020494006BA556
:02049500849C45
:020496008C4296
:02049700316BC7
:0204980084A539
:020499008C4A8B
:02049A00316BC4
:02049B0094B516
:02049C00BD633E
:02049D006B9C56
:02049E004A6BA7
:02049F009410B7
:0204A0003A73AD
:0204A1009CBD00
:0204A200BD5A41
:0204A3005A9C61
:0204A40094B50D
:0204A500D64A35
:0204A6006BB534
:0204A700C5E6A8
:0204A800DE7BF9
:0204A90073B529
:0204AA00B5D6C5
:0204AB00DE73FE
:0204AC0084C505
:0204AD00B5D6C2
:0204AE00C57B0C
:0204AF006BAD33
:0204B000638463
:0204B100942194
:0204B2003A739B
:0204B3006B8C50
:0204B4006B3AA1
:0204B5002952CA
:0204B600424AB8
:0204B7003A21E8
:0204B800103101
:0204B9003A31D6
:0204BA006319C4
:0204BB0042639A
:0204BC00BDB5CC
:0204BD00BD9CE4
:0204BE0094BDEB
:0204BF00CECE9F
:0204C0009C9C02
:0204C1006B943A
:0204C200636B6A
:0204C3005231B4
:0204C4001942DB
:0204C5006B7B4F
:0204C600BD4235
:0204C70073A51B
:0204C800B5CEAF
:0204C900948C11
:0204CA005A7B5B
:0204CB00424AA3
:0204CC004229C3
:0204CD003142BA
:0204CE003131CA
:0204CF004229C0
:0204D0002942BF
:0204D100BDBDAF
:0204D200C59CC7
:0204D30094BDD6
:0204D400A5B5CC
:0204D500D67BD4
:0204D6009CC5C3
:0204D70084940B
:0204D8006B6354
:0204D9003A5A8D
:0204DA004A5A7C
:0204DB007B297B
:0204DC003A6B79
:0204DD009CADD4
:0204DE00E663D3
:0204DF009CD6A9
:0204E000E6F73D
:0204E100F7AD75
:0204E200A5DE95
:0204E300D6EF52
:0204E400CE9CAC
:0204E5007BB5E5
:0204E600CEDE68
:0204E7008494FB
:0204E8004A7355
:0204E9006B7333
:0204EA00314A95
:0204EB001931C5
:0204EC002919CC
:0204ED001919DB
:0204EE001921D2
:0204EF00635A4E
:0204F0003A5A76
:0204F10029429E
:0204F200737322
:0204F300D652DF
:0204F4008CC5B5
:0204F500C5D66A
:0204F600E6849A
:0204F7008CCEA9
:0204F800D6F735
:0204F900E68C8F
:0204FA007BC5C0
:0204FB00C5DE5C
:0204FC00E67B9D
:0204FD0084C5B4
:0204FE00C5E651
:0204FF00F77B89
:020500008CCE9F
:02050100B5D66D
:02050200DE6BAE
:0205030073BDC6
:02050400BDDE5A
:02050500B573CC
:0205060052940D
:02050700ADCE77
:02050800D66BB0
:0205090063B5D8
:02050A00C5E644
:02050B00EF738C
:02050C0073C5B5
:02050D00BDDE51
:02050E00DE739A
:02050F0073BDBA
:02051000B5D65E
:020511005A731B
:0205120019428C
:020513001021B5
:02051400630082
:02051500315261
:02051600425A47
:020517008C193D
:0205180042732C
:020519005A7B0B
:02051A0031317D
:02051B000019C5
:02051C001021AC
:02051D001900C3
:02051E000010CB
:02051F00192998
:020520009C003D
:020521005A8CF2
:02052200A5BD75
:020523009473CF
:020524004A7B10
:02052500425240
:02052600311092
:020527000021B1
:02052800192197
:020529001000C0
:02052A000010BF
:02052B001010AE
:02052C002100AC
:02052D000019B3
:02052E006373F5
:02052F00A53AEB
:020530004A84FB
:020531007B9CB1
:02053200733A1A
:02053300215A4B
:0205340029425A
:020535002100A3
:020536000010B3
:02053700192188
:020538005A0067
:0205390021524D
:02053A00B5C545
:02053B00CE7B75
:02053C006BB59D
:02053D00C5DE19
:02053E00E67362
:02053F007BC57A
:02054000A5C54F
:02054100AD5AB1
:020542003A8CF1
:020543007B9C9F
:02054400CE29BE
:020545005AA5B5
:02054600B5D628
:02054700D66379
:0205480063B599
:02054900ADD62D
:02054A00DE5A77
:02054B0063BD8E
:02054C00BDDE12
:02054D00D66373
:02054E005AB59C
:02054F00A5C540
:02055000BD529A
:020551004294D2
:020552009CC546
:02055300A552AF
:020554003A7BF0
:020555005273DF
:02055600631030
:02055700003A68
:02055800527BD4
:020559008C19FB
:02055A0021631B
:02055B006394A7
:02055C008C21F0
:02055D00216318
:02055E005A8CB5
:02055F008419FD
:02056000195A26
:020561005A84BA
:020562006B2903
:02056300214A2B
:02056400213A3A
:0205650029006B
:02056600001083
:02056700102959
:0205680063002E
:02056900214A25
:02056A0094AD4E
:02056B00C55A6F
:02056C0073AD6D
:02056D00BDCE01
:02056E00DE7B32
:02056F008CC539
:02057000C5D6EE
:02057100CE8436
:0205720073B55F
:02057300ADCE0B
:02057400C56B55
:0205750063AD74
:02057600B5CE00
:02057700D66B41
:0205780073B559
:02057900B5CEFD
:02057A00D66B3E
:02057B0073B556
:02057C00ADCE02
:02057D00AD6B64
:02057E00529495
:02057F0094AD39
:02058000AD527A
:020581005A948A
:020582006B8C80
:02058300943AA8
:020584004A7BB0
:020585004A63C7
:020586007B19DF
:020587003A63D5
:02058800738C72
:020589004A4ADC
:02058A00083136
:02058B009CB51D
:02058C00636B9F
:02058D00194211
:02058E00294AF8
:02058F00A500C5
:02059000528493
:02059100849C48
:020592009C4A81
:020593003A7BB1
:0205940084A53C
:02059500CE4254
:0205960063AD53
:02059700ADD6DF
:02059800DE6320
:020599006BB540
:02059A00A5C5F5
:02059B00DE5A26
:02059C0073BD2D
:02059D00B5D6D1
:02059E00CE6B22
:02059F0063AD4A
:0205A0005A847B
:0205A1008421B3
:0205A2002163D3
:0205A3007B9C3F
:0205A4009C4277
:0205A5004A8486
:0205A6006B8464
:0205A7007B3A9D
:0205A800426BA4
:0205A900737B62
:0205AA004252BB
:0205AB001942F3
:0205AC008C843D
:0205AD00C56324
:0205AE009CC5EA
:0205AF00D6D69E
:0205B000EFA5B5
:0205B100BDE6A5
:0205B20084942F
:0205B3006B5A81
:0205B400315ABA
:0205B50094A50B
:0205B600B5632B
:0205B7006B9C3B
:0205B8008CA510
:0205B9007B6362
:0205BA00526B82
:0205BB004A52A2
:0205BC004231CA
:0205BD003142C9
:0205BE004A4AA7
:0205BF00843A7C
:0205C000637B5B
:0205C1009CADEF
:0205C200D67BE6
:0205C30094C5DD
:0205C40094A5FC
:0205C5008C6B3D
:0205C6005A7366
:0205C7005A6B6D
:0205C8003A42B5
:0205C9001929EE
:0205CA00424AA3
:0205CB008C2181
:0205CC004A7B68
:0205CD00B5C5B2
:0205CE00CE7BE2
:0205CF007BB5FA
:0205D000D6E66D
:0205D100EF9C9D
:0205D2009CD6B5
:0205D300DEF751
:0205D400D6A5AA
:0205D50084BDE3
:0205D600D6E667
:0205D7009494FA
:0205D8004A7B5C
:0205D900525A74
:0205DA002929CD
:0205DB000821F5
:0205DC002119E3
:0205DD002110EB
:0205DE001929D9
:0205DF004A428E
:0205E0004231A6
:0205E1002942AD
:0205E200424A8B
:0205E300DE2117
:0205E40094CEB3
:0205E500D6E658
:0205E600E68CA1
:0205E70084CEC0
:0205E800C5E666
:0205E900E67BAF
:0205EA0084CEBD
:0205EB00C5E663
:0205EC00D67BBC
:0205ED0073BDDC
:0205EE00ADCE90
:0205EF00E66BB9
:0205F0007BC5C9
:0205F100A5CE95
:0205F200EF63B5
:0205F30084CEB4
:0205F400B5D67A
:0205F500E66BB3
:0205F6007BC5C3
:0205F700BDE65F
:0205F800DE73B0
:0205F9006BBDD8
:0205FA00C5E654
:0205FB00EF6BA4
:0205FC007BC5BD
:0205FD00C5EF48
:0205FE00DE7BA2
:0205FF006BBDD2
:02060000ADD675
:02060100526B3A
:020602000831BD
:020603001931AB
:02060400840070
:02060500316B57
:020606009CB5A1
:02060700B563D9
:0206080052940A
:02060900638408
:02060A00632962
:02060B00194292
:02060C00294281
:02060D003A08A9
:02060E000029C1
:02060F00425255
:020610006B1964
:0206110019527C
:0206120094B59D
:02061300CE5ABD
:0206140073B5BC
:020615008CA5B2
:0206160063522D
:0206170021526E
:02061800425A44
:02061900311995
:02061A000021BD
:02061B0019299B
:02061C003A00A2
:02061D000029B2
:02061E00637BFC
:02061F00B531F3
:020620005A94EA
:02062100A5C56D
:02062200946BD7
:02062300427B18
:020624004A5A30
:02062500211999
:020626000010C2
:020627000810B9
:020628002900A7
:020629000821A6
:02062A008C9CA6
:02062B00BD63AD
:02062C006BADB4
:02062D00B5CE48
:02062E00DE6B81
:02062F0073C591
:02063000ADCE4D
:02063100C5639F
:02063200529CD8
:02063300ADCE4A
:02063400C55AA5
:02063500529CD5
:02063600B5DE2F
:02063700BD63A1
:020638004A94E2
:02063900ADCE44
:02063A00D65A8E
:02063B0063B5A5
:02063C00ADCE41
:02063D00CE529B
:02063E0052A5C3
:02063F00A5CE46
:02064000D65290
:020641005AADB0
:02064200A5C54C
:02064300BD52A6
:020644004A94D6
:020645007BA593
:02064600AD31D4
:02064700317B05
:020648006B94B1
:020649009C21F2
:02064A00296B1A
:02064B007BAD85
:02064C00A531D6
:02064D00317BFF
:02064E007BAD82
:02064F00AD31CB
:020650003A84EA
:020651007BA587
:02065200943AD8
:02065300316B09
:02065400426BF7
:020655005A1039
:02065600083A60
:020657006384BA
:020658009C31D3
:02065900427BE2
:02065A009CBD45
:02065B00C55A7E
:02065C006BAD84
:02065D00B5CE18
:02065E00D67351
:02065F007BBD61
:02066000B5D60D
:02066100C5735F
:020662006BAD7E
:02066300ADCE1A
:02066400D66B53
:020665006BB573
:02066600BDDEF7
:02066700D67B40
:0206680073BD60
:02066900A5BD2D
:02066A00B56376
:02066B005A9C97
:02066C00849C6C
:02066D006B4AD6
:02066E00215217
:02066F006B7BA3
:02067000633AEB
:02067100215214
:020672005A6BC1
:020673004A310A
:02067400193A31
:02067500213131
:020676008C08EE
:02067700637BA3
:0206780021312E
:02067900520825
:02067A0021421B
:02067B006B848E
:02067C00295201
:02067D00001962
:02067E004252E6
:02067F008C21CC
:020680004A73BB
:020681004A63CA
:020682005A1903
:02068300083A33
:020684006B9475
:02068500B5318D
:0206860052948C
:02068700A5CEFE
:02068800A56368
:02068900317BC3
:02068A008CB52D
:02068B00CE425D
:02068C0063AD5C
:02068D00ADCEF0
:02068E00C56342
:02068F005AA56A
:02069000639471
:020691009421B2
:02069200296BD2
:0206930084AD34
:02069400B5426D
:0206950052947D
:02069600849C42
:020697008C4293
:020698004273AB
:020699007B8C58
:02069A006352A9
:02069B00315AD2
:02069C005A5AA8
:02069D00BD316D
:02069E008CB519
:02069F00C5CEC6
:0206A000D69CE6
:0206A100A5CEE4
:0206A200C5CEC3
:0206A300C59CF4
:0206A4008CB513
:0206A50094A51A
:0206A6009C6B4B
:0206A7005A8C6B
:0206A800637B72
:0206A900633AB2
:0206AA003152CB
:0206AB004A52B1
:0206AC004A31D1
:0206AD00314AD0
:0206AE00636384
:0206AF00B54A4A
:0206B0008CAD0F
:0206B100B5C5CD
:0206B200B58C05
:0206B3007BA525
:0206B40094A50B
:0206B5004A7386
:0206B600213AE7
:0206B7003A4ABD
:0206B8006329B4
:0206B9003A52B3
:0206BA006B7B58
:0206BB00AD4A46
:0206BC006B9C35
:0206BD00BDD6A8
:0206BE00DE84D8
:0206BF008CC5E8
:0206C000D6EF73
:0206C100EF9CAC
:0206C2009CDEBC
:0206C300DEF760
:0206C400DE9CBA
:0206C5007BBDFB
:0206C600BDDE97
:0206C7008C8421
:0206C80042737B
:0206C9003A4AAB
:0206CA002910F5
:0206CB00082104
:0206CC001919FA
:0206CD0021000A
:0206CE001021F9
:0206CF005A5A75
:0206D0008C4A52
:0206D1006B8C30
:0206D200636B58
:0206D300B53A36
:0206D4006BA514
:0206D500C5DE80
:0206D600E684B8
:0206D70084CECF
:0206D800C5DE7D
:0206D900E67BBE
:0206DA007BC5DE
:0206DB00D6EF58
:0206DC00C58CCB
:0206DD006BAD03
:0206DE008CA5E9
:0206DF009C522B
:0206E000428452
:0206E1008CADDE
:0206E200DE4AEE
:0206E3007BC5D5
:0206E400C5E669
:0206E500D67BC2
:0206E6006BB5F2
:0206E700BDDE76
:0206E800DE73BF
:0206E9006BBDE7
:0206EA00BDDE73
:0206EB00EF6BB3
:0206EC0073C5D4
:0206ED00C5EF57
:0206EE00E673B1
:0206EF006BBDE1
:0206F000A5CE95
:0206F1008C5A21
:0206F20029637A
:0206F3004A7348
:0206F400B51936
:0206F50052941D
:0206F600B5DE6F
:0206F700C56BD1
:0206F800529C12
:0206F9007BA5DF
:0206FA008C3A38
:0206FB00316B61
:0206FC004A6B47
:0206FD009C1946
:0206FE00528424
:0206FF007B9CE2
:02070000DE4ACF
:020701008CC5A5
:02070200ADCE7A
:02070300C573BC
:0207040063ADE3
:020705009CBD99
:02070600A55AF2
:020707004A8422
:020708007394E8
:020709005A4252
:02070A0010429B
:02070B00425A50
:02070C006B1070
:02070D0019527F
:02070E0094ADA8
:02070F00C552D1
:0207100063A5DF
:020711009CB595
:02071200AD5ADE
:020713005A94F6
:020714004A5A3F
:020715002121A0
:020716000019C8
:020717000810C8
:020718001900C6
:020719000008D6
:02071A0031426A
:02071B00A5082F
:02071C004A8C05
:02071D00A5BD78
:02071E00CE5AB1
:02071F0063ADC8
:02072000B5D64C
:02072100CE6B9D
:020722005AADCE
:02072300B5DE41
:02072400C56BA3
:0207250052A5DB
:02072600B5D646
:02072700DE638F
:020728006BB5AF
:02072900A5C564
:02072A00C552B6
:02072B0052A5D5
:02072C00A5C561
:02072D00BD4AC3
:02072E004A9CE3
:02072F009CC567
:02073000C54AB8
:020731004A9CE0
:020732009CC564
:02073300BD4ABD
:020734004294ED
:0207350094C569
:02073600C54AB2
:020737004A94E2
:020738008CB57E
:02073900B53ACF
:02073A003A84FF
:02073B0094C563
:02073C00CE42AB
:02073D00529CCC
:02073E009CCE4F
:02073F00C54AA9
:020740004A9CD1
:020741009CC555
:02074200B54AB6
:020743004284EE
:020744006B94B4
:020745009C21F5
:02074600316B15
:020747007BAD88
:02074800BD42B0
:020749004A8CD8
:02074A00A5C543
:02074B00CE5A84
:02074C0063AD9B
:02074D00B5D61F
:02074E00CE6B70
:02074F006BB588
:02075000ADC535
:02075100B56B86
:02075200529CB7
:02075300C5DE01
:02075400CE7B5A
:0207550073B57A
:02075600C5DEFE
:02075700CE844E
:0207580073B577
:020759008CA56D
:02075A008C52BF
:02075B004273E7
:02075C007B948C
:02075D00524AFE
:02075E00103A4F
:02075F005A6BD3
:02076000423A1B
:02076100193A43
:0207620019215B
:02076300210073
:02076400001083
:02076500192158
:02076600420847
:02076700313A25
:02076800101966
:0207690031005D
:02076A0010215C
:02076B0021313A
:02076C0021105A
:02076D00001971
:02076E00213137
:02076F004A0836
:02077000193A34
:02077100314A0B
:02077200521023
:02077300103A3A
:020774005A73B6
:02077500A529B4
:020776004A84B3
:020777008CB53F
:020778008C52A1
:02077900296BEA
:02077A009CC51C
:02077B00C55A5D
:02077C005AA57C
:02077D00ADCEFF
:02077E00D66340
:02077F006BB558
:020780006B9478
:020781009C21B9
:020782003173D1
:020783008CB533
:02078400C54A64
:020785005A9C7C
:020786008CAD38
:02078700844AA2
:020788003163DB
:02078900637398
:02078A007331C9
:02078B003163D8
:02078C00737B7D
:02078D00B54A6B
:02078E0084AD38
:02078F00A5AD16
:02079000A57B47
:02079100739C57
:02079200ADB503
:02079300B5842B
:0207940084AD32
:02079500CEDEB6
:020796007BA541
:02079700426BB3
:02079800637389
:020799007331BA
:02079A004263B8
:02079B004252C8
:02079C007B29B7
:02079D004A6BA5
:02079E008C9C31
:02079F00BD6B30
:0207A00084A52E
:0207A100C5D6BB
:0207A2009CA514
:0207A30063846D
:0207A40052639E
:0207A500523AC6
:0207A6002942E6
:0207A7002131FE
:0207A80031100E
:0207A900082125
:0207AA007B8C46
:0207AB00D65224
:0207AC008CBD02
:0207AD00B5CEC7
:0207AE00E67BE8
:0207AF008CCEEE
:0207B000DEEF7A
:0207B100EF94C3
:0207B2009CDECB
:0207B300D6EF7F
:0207B400D694D9
:0207B50073BD12
:0207B600A5BDDF
:0207B700946349
:0207B8004A7B7A
:0207B900293ADB
:0207BA0031000C
:0207BB00082113
:0207BC00191909
:0207BD00190819
:0207BE00081918
:0207BF00101018
:0207C0006B00CC
:0207C100426B89
:0207C200ADB5D3
:0207C300BD7BFC
:0207C40073B50B
:0207C500B5C5B8
:0207C600D66BF0
:0207C7007BBDF8
:0207C800C5DE8C
:0207C900D67BDD
:0207CA007BBDF5
:0207CB00B5C5B2
:0207CC007B733D
:0207CD00316B8E
:0207CE003A4AA5
:0207CF004208DE
:0207D0000031F6
:0207D1007B9417
:0207D200CE4215
:0207D3006BB504
:0207D400C5E678
:0207D500BD7BEA
:0207D6005AA522
:0207D700B5D695
:0207D800C56BEF
:0207D9005AA51F
:0207DA00ADCEA2
:0207DB00DE5AE4
:0207DC006BBDF3
:0207DD00B5DE87
:0207DE00D663E0
:0207DF0063B500
:0207E000A5CEA4
:0207E100C552FF
:0207E200529C27
:0207E3008CBDCB
:0207E400CE4203
:0207E50052A51B
:0207E600BDE66E
:0207E700D663D7
:0207E8005AAD08
:0207E90094C5B5
:0207EA00B54A0E
:0207EB004A942E
:0207EC007B9CF4
:0207ED00AD3A23
:0207EE004A843B
:0207EF008CB5C7
:0207F000BD52F8
:0207F1005A9C10
:0207F2008CADCC
:0207F300D64AE4
:0207F4006BB5E3
:0207F500BDDE67
:0207F600CE7BB8
:0207F7006BB5E0
:0207F8008CADC6
:0207F900A54A0F
:0207FA00428437
:0207FB007394F5
:0207FC00AD3A14
:0207FD004A8C24
:0207FE00B5D66E
:0207FF00DE6BAF
:0208000073BDC6
:02080100A5C58B
:02080200C563CC
:0208030073ADD3
:0208040094ADB1
:020805006B6323
:0208060031526D
:020807000819CE
:020808002100CD
:020809000010DD
:02080A003A4A68
:02080B0094084F
:02080C003A7B35
:02080D008CADB0
:02080E00BD4AE1
:02080F0052A5F0
:02081000A5C57C
:02081100CE5ABD
:020812005AADDD
:02081300ADCE68
:02081400B55AD3
:0208150042940B
:020816009CBD87
:02081700C54AD0
:0208180052A5E7
:020819009CBD84
:02081A00C54ACD
:02081B0052A5E4
:02081C009CC579
:02081D00B54ADA
:02081E00429402
:02081F008CB596
:02082000BD42D7
:020821004294FF
:0208220094BD83
:02082300CE42C3
:020824004A9CEC
:02082500ADD64E
:02082600CE52B0
:0208270052A5D8
:02082800ADD64B
:02082900D65A9D
:02082A005AADC5
:02082B00ADD648
:02082C00CE5AA2
:02082D0052A5D2
:02082E00A5CE55
:02082F00D6529F
:0208300052A5CF
:02083100A5CE52
:02083200D6529C
:020833005AADBC
:0208340084B589
:02083500B53AD2
:020836003A8402
:020837008CB57E
:02083800C542B7
:02083900529CCF
:02083A0094BD6B
:02083B00BD42BC
:02083C00529CCC
:02083D00A5C54F
:02083E00B55AA9
:02083F004A94D9
:0208400094B56D
:02084100AD52B6
:020842004A94D6
:02084300CEE6FF
:02084400DE8C48
:0208450084C568
:02084600BDD61D
:02084700AD847E
:020848006394B7
:020849006B7BC7
:02084A00523A20
:02084B00194250
:02084C004A5A06
:02084D0029215F
:02084E00002187
:02084F00192965
:02085000210085
:0208510000198C
:0208520010197B
:0208530019008A
:02085400001092
:02085500101978
:02085600100888
:02085700081087
:02085800081086
:0208590010008D
:02085A00000894
:02085B00101972
:02085C00210079
:02085D00081978
:02085E00191966
:02085F0019007E
:02086000001086
:02086100293A32
:02086200421042
:02086300103152
:020864005A73C5
:020865009C31C4
:020866005A84B2
:020867004A63E2
:020868007B19FA
:02086900296301
:02086A008CA55B
:02086B008C52AD
:02086C003173E6
:02086D00A5C51F
:02086E00C56B58
:02086F0063A57F
:0208700073A56E
:02087100B5319F
:02087200428CB6
:0208730094BD32
:02087400B5527B
:020875004A94A3
:0208760084AD4F
:02087700844AB1
:020878003163EA
:020879005A73B0
:02087A007B29D8
:02087B003A6BD6
:02087C007B8C73
:02087D008C529B
:02087E00527BAB
:02087F00ADBD0D
:020880006B8487
:020881004263D0
:020882009CA533
:02088300B57B43
:020884008CB531
:02088500848C61
:02088600AD5A69
:02088700739C60
:02088800949C3E
:02088900846B7E
:02088A005273A7
:02088B005A6BA6
:02088C00AD427B
:02088D007B9C52
:02088E00B5C5EE
:02088F00A5942E
:0208900073945F
:020891007B8C5E
:02089200635AA7
:020893003A52D7
:020894003A4ADE
:020895004221FE
:02089600193116
:020897004A5ABB
:020898006331CA
:020899003152DA
:02089A006B737E
:02089B00E63A3B
:02089C009CD6E8
:02089D00D6EF94
:02089E00E694DE
:02089F0094D6ED
:0208A000DEEF89
:0208A100EF94D2
:0208A20094D6EA
:0208A300D6E697
:0208A400DE8CE8
:0208A5007BC511
:0208A600A5C5E6
:0208A700AD633F
:0208A8005A9460
:0208A900314AD2
:0208AA003A080A
:0208AB00102912
:0208AC00191918
:0208AD00190030
:0208AE00081927
:0208AF00212105
:0208B0005A08E4
:0208B1003152C2
:0208B2008C9424
:0208B300BD5A2C
:0208B40073AD22
:0208B500B5C5C7
:0208B600CE6B07
:0208B70073B517
:0208B800BDD6AB
:0208B900AD7B15
:0208BA005A944E
:0208BB006B7B55
:0208BC003A3AC6
:0208BD00083100
:0208BE001929F6
:0208BF004200F5
:0208C0000831FD
:0208C10094ADF4
:0208C200AD6B1C
:0208C30052944D
:0208C400A5BDD0
:0208C50094633A
:0208C600427B73
:0208C7006B8440
:0208C800943169
:0208C9003A7B78
:0208CA0094B5E3
:0208CB00DE52FB
:0208CC006BBD02
:0208CD00B5DE96
:0208CE00DE63E7
:0208CF0063B50F
:0208D000ADD6A3
:0208D100DE5AED
:0208D2005AAD1D
:0208D300ADDE98
:0208D400D65AF2
:0208D50052A52A
:0208D600B5DE8D
:0208D700E65ADF
:0208D80063BDFE
:0208D900B5E682
:0208DA00D663E3
:0208DB0063AD0B
:0208DC00ADD697
:0208DD00AD6309
:0208DE00428C4A
:0208DF007B9C00
:0208E000844250
:0208E100316381
:0208E2007B9405
:0208E300A5422C
:0208E400528C34
:0208E500B5CE8E
:0208E600DE73BF
:0208E7007BC5CF
:0208E80094ADCD
:0208E900D642F5
:0208EA0063B5F4
:0208EB00B5D680
:0208EC00BD6BE2
:0208ED00529C1B
:0208EE0084A5DF
:0208EF00A53A28
:0208F000428C38
:0208F100849CE5
:0208F200AD4215
:0208F3005A9415
:0208F40094A5C9
:0208F500AD5AFA
:0208F6006B9401
:0208F7006B8410
:0208F800634259
:0208F900214A92
:0208FA005A6B37
:0208FB00A52135
:0208FC004A8C24
:0208FD009CBDA0
:0208FE00AD5AF1
:0208FF00428C29
:020900009CBD9C
:02090100C552DD
:02090200529C05
:020903009CC591
:020904008C5213
:02090500196B6C
:0209060094B5A6
:02090700C542E7
:0209080052A5F6
:0209090084A5C3
:02090A00BD31FD
:02090B004A9C04
:02090C0094BD98
:02090D00B54AE9
:02090E00429411
:02090F009CC585
:02091000C54AD6
:020911004A9406
:0209120084B5AA
:02091300BD31F4
:0209140042940B
:02091500ADDE55
:02091600DE5AA7
:0209170063B5C6
:02091800B5D652
:02091900CE5AB4
:02091A0052ADDC
:02091B00ADCE5F
:02091C00DE52A9
:02091D0063B5C0
:02091E00ADD654
:02091F00C552BF
:020920004A9CEF
:02092100A5CE61
:02092200D652AB
:020923005AA5D3
:020924008CB590
:02092500BD3AD9
:02092600428C01
:0209270094C575
:02092800C54ABE
:020929004A9CE6
:02092A0094BD7A
:02092B00B542D3
:02092C004A94EB
:02092D0094B57F
:02092E00A54AD8
:02092F00428400
:020930009CBD6C
:02093100C55AA5
:020932006BADAB
:02093300BDD62F
:02093400CE7B78
:020935007BB590
:020936008C9C97
:02093700635209
:02093800214A52
:020939003A4A38
:02093A00291979
:02093B00002199
:02093C0021296F
:02093D00190897
:02093E000010A7
:02093F0010198D
:020940001000A5
:020941000010A4
:02094200101093
:020943001000A2
:020944000010A1
:02094500101090
:0209460008089F
:020947000008A6
:0209480008089D
:020949000800A4
:02094A000008A3
:02094B0010108A
:02094C00100099
:02094D00001098
:02094E0008108F
:02094F0019008D
:0209500008108D
:0209510019216A
:02095200290872
:02095300081981
:020954004A5AFD
:020955008431EB
:02095600526BE2
:02095700293A3B
:02095800AD00F0
:020959006B949D
:02095A00637BBD
:02095B009C3AC4
:02095C005284C3
:02095D00A5BD36
:02095E008C7398
:02095F003A73E9
:0209600084AD64
:02096100B53AA5
:02096200428CC5
:0209630094C539
:02096400BD5282
:020965005294AA
:0209660084A566
:02096700844AC0
:020968003163F9
:02096900637BAE
:02096A008C31CE
:02096B004A73CD
:02096C00738492
:02096D00734ACB
:02096E00315AFC
:02096F006B7BA0
:02097000BD4286
:020971008CB543
:020972007B8484
:020973008C5A9C
:0209740063849A
:02097500ADAD26
:02097600948467
:02097700638C8F
:02097800949C4D
:02097900CE634B
:02097A009CC51A
:02097B008C945A
:02097C009C6B72
:02097D006B8C81
:02097E009CAD2E
:02097F0073847F
:020980004A63C8
:020981005263BF
:020982005A3ADF
:02098300314AF7
:020984005A6BAC
:020985004A3AEC
:02098600213A14
:020987003142FB
:02098800B510A8
:020989007BAD44
:02098A00A5B511
:02098B00E67311
:02098C0094D6FF
:02098D00E6F78B
:02098E00E6A5DC
:02098F0094D6FC
:02099000D6E6A9
:02099100E694EA
:020992008CD601
:02099300D6E6A6
:02099400DE8CF7
:020995007BC520
:02099600ADC5ED
:02099700D66325
:020998007BB52D
:020999005A738F
:02099A004231E8
:02099B00103119
:02099C00191927
:02099D0019003F
:02099E00081936
:02099F00292904
:0209A0006319D9
:0209A1003A5AC0
:0209A20073845C
:0209A300BD4A4B
:0209A4006BAD39
:0209A500ADBDE6
:0209A600CE6B16
:0209A70073B526
:0209A8009CAD04
:0209A900736376
:0209AA003163B7
:0209AB002931F0
:0209AC00190030
:0209AD00001038
:0209AE002129FD
:0209AF004208FC
:0209B000103AFB
:0209B10094A50B
:0209B200946B44
:0209B300527B75
:0209B4004A5A9D
:0209B5004221DD
:0209B6001031FE
:0209B7002129F4
:0209B8004200FB
:0209B90000310B
:0209BA009CB5EA
:0209BB00CE6309
:0209BC0063AD29
:0209BD00B5DEA5
:0209BE00DE63F6
:0209BF0063B51E
:0209C000BDE692
:0209C100DE63F3
:0209C2005AB524
:0209C300ADDEA7
:0209C400DE5201
:0209C50052B529
:0209C600ADD6AC
:0209C700D64A0E
:0209C80052A536
:0209C900ADD6A9
:0209CA00CE520B
:0209CB0052A533
:0209CC00A5C5BF
:0209CD00945A3A
:0209CE003A737A
:0209CF00425292
:0209D0002910EC
:0209D10000190B
:0209D2001929E1
:0209D3005200D0
:0209D4002142BE
:0209D5007B8C19
:0209D600D64AFF
:0209D70084C5D5
:0209D80094ADDC
:0209D900B54A1D
:0209DA00529C2D
:0209DB00A5C5B0
:0209DC00C55AFA
:0209DD0052A521
:0209DE007B9C00
:0209DF00633A79
:0209E000104ABB
:0209E1003A5288
:0209E2003110D2
:0209E3000021F1
:0209E4005A6B4C
:0209E5009C3143
:0209E6005A8431
:0209E70094ADCD
:0209E800AD5A06
:0209E900529426
:0209EA008CA5DA
:0209EB00B54213
:0209EC004A942B
:0209ED00A5BDA6
:0209EE00A55A08
:0209EF00428440
:0209F00094B5BC
:0209F100C54AF5
:0209F2005AA504
:0209F30094B5B9
:0209F4009C4A1B
:0209F500297B5C
:0209F600739CF0
:0209F700BD2120
:0209F8004A941F
:0209F90084A5D3
:0209FA00BD310D
:0209FB004A941C
:0209FC009CC598
:0209FD00C552E1
:0209FE004A9C11
:0209FF009CC595
:020A0000CE4ADC
:020A010052A5FC
:020A02009CCE88
:020A0300C54AE2
:020A04004A9412
:020A0500A5D674
:020A0600DE5AB6
:020A070063B5D5
:020A0800B5D661
:020A0900CE63BA
:020A0A005AADE3
:020A0B00ADCE6E
:020A0C00CE52C8
:020A0D005AADE0
:020A0E00A5C57C
:020A0F00BD52D6
:020A10004A9406
:020A110094BD92
:020A1200AD42F3
:020A1300317B35
:020A14007BADB8
:020A1500B531F9
:020A16003A8420
:020A170094BD8C
:020A1800C542D5
:020A19004A9CF5
:020A1A009CC579
:020A1B00AD52DA
:020A1C00428412
:020A1D007BA5B7
:020A1E00AD3AEF
:020A1F004A8CFF
:020A2000B5CE51
:020A2100CE7392
:020A22007BB5A2
:020A2300A5B577
:020A2400946BD1
:020A25004A8401
:020A2600526319
:020A27006B2939
:020A28003A5A38
:020A2900293171
:020A2A001910A1
:020A2B000010B9
:020A2C0010199F
:020A2D001000B7
:020A2E000008BE
:020A2F000810AD
:020A30000800BC
:020A31000008BB
:020A32000808B2
:020A33000800B9
:020A34000008B8
:020A35000808AF
:020A36000800B6
:020A37000010AD
:020A38001008A4
:020A39000800B3
:020A3A000010AA
:020A3B000808A9
:020A3C000800B0
:020A3D000008AF
:020A3E000808A6
:020A3F001000A5
:020A40000008AC
:020A4100101093
:020A4200190099
:020A43000010A1
:020A4400313A45
:020A45003A2154
:020A4600193164
:020A47005A6BE8
:020A4800524218
:020A4900294A38
:020A4A00425216
:020A4B00A521E3
:020A4C00638CB9
:020A4D007384B0
:020A4E006B4AF1
:020A4F00215232
:020A50008CBD5B
:020A5100BD4A9C
:020A5200428CD4
:020A53008CBD58
:020A5400AD4AA9
:020A55004284D9
:020A56006B8CA7
:020A57006B2909
:020A5800215229
:020A59005A73CE
:020A5A007B31EE
:020A5B003A63FC
:020A5C006B84A9
:020A5D008C42C9
:020A5E004A73D9
:020A5F00738C96
:020A6000A54AA5
:020A6100739C84
:020A6200BDC510
:020A63009C9461
:020A64007B9C79
:020A65006B6BB9
:020A6600CE4A76
:020A67009CC52C
:020A6800B5BD1A
:020A69007B947C
:020A6A005273C5
:020A6B00BDC507
:020A6C00B5A52E
:020A6D0094AD46
:020A6E00314213
:020A6F004A1922
:020A7000213A29
:020A71006B7B9D
:020A72007B4ABD
:020A73004A6BCC
:020A74006B73A2
:020A7500A54298
:020A76006B947F
:020A77007B8C76
:020A7800AD527D
:020A79006B9C74
:020A7A00DEEFAD
:020A7B00EFA5E5
:020A7C00A5DEF5
:020A7D00D6E6BB
:020A7E00DE9404
:020A7F008CD613
:020A8000DEE6B0
:020A8100E694F9
:020A82008CD610
:020A8300C5DECE
:020A8400DE7B17
:020A850073BD3F
:020A8600B5CEEB
:020A8700CE6B34
:020A880073B544
:020A89007B945C
:020A8A004A4AD6
:020A8B00193A16
:020A8C0010193F
:020A8D00100057
:020A8E00001056
:020A8F0008104D
:020A9000310033
:020A9100103122
:020A9200949C32
:020A9300DE6B18
:020A940094CEFE
:020A950094A526
:020A9600AD525F
:020A9700639C5E
:020A98007B8C55
:020A9900524ABF
:020A9A00214AEF
:020A9B00101930
:020A9C0019003F
:020A9D00001047
:020A9E0019211C
:020A9F004A000B
:020AA0002942E9
:020AA1004A52B7
:020AA2004A29DF
:020AA300213AF6
:020AA40010211F
:020AA500190036
:020AA60000103E
:020AA700101924
:020AA800190033
:020AA90000103B
:020AAA007B943B
:020AAB00C54A3A
:020AAC0063A540
:020AAD00B5DEB4
:020AAE00D6630D
:020AAF005AAD3E
:020AB000B5DEB1
:020AB100DE5A0B
:020AB20052B53B
:020AB300A5D6C6
:020AB400DE4A18
:020AB50052AD40
:020AB600ADDEB3
:020AB700C55226
:020AB800429C5E
:020AB9008CB5FA
:020ABA00B53A4B
:020ABB003A8C73
:020ABC006B9439
:020ABD005231B4
:020ABE00083AF4
:020ABF001929F3
:020AC00019001B
:020AC100001023
:020AC200101012
:020AC300100021
:020AC400000828
:020AC5001921F5
:020AC6008400AA
:020AC700427378
:020AC800B5C5B2
:020AC900D673E2
:020ACA006BB50A
:020ACB00A5C5BF
:020ACC00CE5208
:020ACD0063AD17
:020ACE0094B5DD
:020ACF00635270
:020AD0001042D2
:020AD1001929E1
:020AD200190009
:020AD300000819
:020AD4001929DE
:020AD5006300BC
:020AD600214AB3
:020AD70094B5D4
:020AD800B56304
:020AD9005A9C25
:020ADA0084A5F1
:020ADB008C424B
:020ADC00216B8C
:020ADD00527352
:020ADE006B109B
:020ADF00104ABB
:020AE0005A7B3F
:020AE100A5214D
:020AE2003A7B5D
:020AE30094B5C8
:020AE400B54A11
:020AE500428C41
:020AE60094B5C5
:020AE700CE42FD
:020AE80052A515
:020AE900A5C5A1
:020AEA00D652E2
:020AEB005AAD02
:020AEC00BDDE6D
:020AED00D66BC6
:020AEE005AADFF
:020AEF009CC5A4
:020AF000D64AE4
:020AF10052AD04
:020AF2009CC5A1
:020AF300CE4AE9
:020AF40052A509
:020AF500A5CE8C
:020AF600CE52DE
:020AF70052ADFE
:020AF800ADCE81
:020AF900D65ACB
:020AFA0063B5E2
:020AFB00B5D66E
:020AFC00D66BB7
:020AFD0063B5DF
:020AFE00ADCE7B
:020AFF00BD5ADE
:020B00004A9C0D
:020B010094BDA1
:020B0200A5420A
:020B0300317B44
:020B040073A5D7
:020B0500A52920
:020B0600317349
:020B070084ADBB
:020B0800AD3A04
:020B09003A842C
:020B0A0084ADB8
:020B0B00943A1A
:020B0C00296B53
:020B0D00527321
:020B0E00C51907
:020B0F0063A5DC
:020B1000ADC571
:020B1100B56BC2
:020B1200639CE2
:020B13007B94D1
:020B1400634A32
:020B1500295263
:020B1600313A72
:020B17002910A3
:020B18000819BA
:020B19001019B1
:020B1A001000C9
:020B1B000008D0
:020B1C001010B7
:020B1D001000C6
:020B1E000008CD
:020B1F001010B4
:020B20001008BB
:020B21000810BA
:020B22001010B1
:020B23001008B8
:020B24000819AE
:020B25001008B6
:020B26000808BD
:020B27000810B4
:020B28001008B3
:020B29000808BA
:020B2A000010B9
:020B2B001008B0
:020B2C000808B7
:020B2D000810AE
:020B2E000808B5
:020B2F000800BC
:020B30000008BB
:020B31000810AA
:020B32001000B1
:020B33000810A8
:020B3400101996
:020B350019089D
:020B360008199C
:020B3700212972
:020B380021108A
:020B3900081999
:020B3A004A521D
:020B3B00843103
:020B3C005273F2
:020B3D00314243
:020B3E003A106B
:020B3F00082983
:020B400094BD62
:020B4100C54AA3
:020B42005294CB
:020B430094BD5F
:020B4400C55298
:020B4500639CAF
:020B4600A5BD4B
:020B4700BD6B84
:020B480073A593
:020B4900ADC538
:020B4A009C7B92
:020B4B005A8CC2
:020B4C00637BC9
:020B4D00733AF9
:020B4E00316311
:020B4F00738CA5
:020B50007B4ADE
:020B5100426BF5
:020B52006B73C3
:020B5300BD4A99
:020B540094B556
:020B5500C5C514
:020B56007BA57D
:020B57005273D7
:020B5800848493
:020B5900B56382
:020B5A009CB548
:020B5B006363D2
:020B5C00734ADA
:020B5D005A6BD1
:020B5E008C9475
:020B5F0094738D
:020B60006384AC
:020B61006373BC
:020B62008442CB
:020B63004A73D3
:020B64007B8C88
:020B65009C4AA8
:020B6600528CAF
:020B67006B7BA6
:020B6800B531A5
:020B690063A582
:020B6A00CEDEDD
:020B6B00E68C16
:020B6C009CDE0D
:020B6D00E6EFB1
:020B6E00E6A5FA
:020B6F0094D61A
:020B7000BDCEF8
:020B7100DE7B29
:020B72007BC541
:020B7300C5DEDD
:020B7400DE7B26
:020B75007BC53E
:020B7600BDD6EA
:020B7700CE733B
:020B780073B553
:020B79007B8C73
:020B7A004242F5
:020B7B00103137
:020B7C00191945
:020B7D00100066
:020B7E00001065
:020B7F00191942
:020B8000210052
:020B8100001959
:020B8200636BA3
:020B8300CE3A68
:020B84008CBD26
:020B85008C944E
:020B86008C528F
:020B8700528496
:020B88004A52CF
:020B8900292120
:020B8A00082140
:020B8B00101048
:020B8C00210046
:020B8D0000194D
:020B8E003A42E9
:020B8F004A1901
:020B9000214200
:020B9100313AF7
:020B9200191038
:020B9300001050
:020B940010103F
:020B950010004E
:020B960000104D
:020B970010103C
:020B9800190042
:020B990000104A
:020B9A005A6B94
:020B9B00C53162
:020B9C0063A54F
:020B9D00B5D6CB
:020B9E00CE6324
:020B9F004AA565
:020BA000ADD6D0
:020BA100DE5222
:020BA2005AB542
:020BA300ADD6CD
:020BA400CE522F
:020BA5004AA55F
:020BA6009CCEE3
:020BA700A54A5D
:020BA800217BAF
:020BA900739C3B
:020BAA00942194
:020BAB00216BBC
:020BAC00527382
:020BAD004219EB
:020BAE00002124
:020BAF00102113
:020BB000100033
:020BB10000083A
:020BB200080831
:020BB300100030
:020BB40000102F
:020BB50019190C
:020BB600290014
:020BB700082113
:020BB800637365
:020BB900C53A3B
:020BBA0073AD19
:020BBB00ADCEBD
:020BBC00C5630F
:020BBD005AA537
:020BBE00A5C5CB
:020BBF00AD5A2D
:020BC000528C55
:020BC1003A52A6
:020BC200191008
:020BC300000828
:020BC40008190E
:020BC50021000D
:020BC60000101D
:020BC700425A90
:020BC800A5196D
:020BC900528C4C
:020BCA008CADF0
:020BCB00A54A39
:020BCC00428461
:020BCD004A6B71
:020BCE003110E4
:020BCF00001014
:020BD0002942B8
:020BD10084009E
:020BD200296395
:020BD3008CADE7
:020BD400BD4A18
:020BD5004A9440
:020BD60094BDCC
:020BD700CE4A04
:020BD8004AA52C
:020BD900ADD697
:020BDA00CE5AF1
:020BDB0052AD19
:020BDC00A5C5AD
:020BDD00CE4AFE
:020BDE0052AD16
:020BDF00A5CEA1
:020BE000D652EB
:020BE10052A51B
:020BE2009CC5B0
:020BE300CE4AF8
:020BE4004A9C29
:020BE500A5CE9B
:020BE600CE52ED
:020BE70052A515
:020BE800A5C5A1
:020BE900C552F3
:020BEA0052A512
:020BEB00B5CE85
:020BEC00CE6BCE
:020BED0063B5EE
:020BEE00B5CE82
:020BEF00CE63D3
:020BF0005AADFC
:020BF10094BDB1
:020BF200AD4A0A
:020BF3003A8442
:020BF400638C10
:020BF5008C2151
:020BF600216379
:020BF700739CED
:020BF8009C312E
:020BF9003A7B45
:020BFA007394F2
:020BFB00633A5B
:020BFC00104A9D
:020BFD00527331
:020BFE00CE2106
:020BFF007BB5C4
:020C0000A5BD90
:020C0100A56BE1
:020C02005A8C0A
:020C0300637319
:020C04003A3183
:020C05001031AC
:020C06001921B2
:020C07001900D2
:020C08000010DA
:020C09001010C9
:020C0A001000D8
:020C0B000010D7
:020C0C001910BD
:020C0D001908C4
:020C0E001019BB
:020C0F001919B1
:020C10001910B9
:020C11001021B0
:020C12002119A6
:020C13001910B6
:020C14001021AD
:020C15002110AC
:020C16001010BC
:020C17000819BA
:020C18001910B1
:020C19001008C1
:020C1A000819B7
:020C1B001910AE
:020C1C001010B6
:020C1D000819B4
:020C1E001010B4
:020C1F001008BB
:020C20000810BA
:020C21000808C1
:020C22001000C0
:020C23000010BF
:020C24001010AE
:020C25001000BD
:020C26000010BC
:020C27001010AB
:020C28001900B1
:020C29000010B9
:020C2A0021297E
:020C2B00211096
:020C2C0008219D
:020C2D0021297B
:020C2E004A106A
:020C2F00294258
:020C300073A5AA
:020C3100A531EB
:020C320031731C
:020C33006B94C0
:020C34008C3101
:020C3500296331
:020C36007394B5
:020C3700943AED
:020C38004A7BF5
:020C3900637BDB
:020C3A00843103
:020C3B00427302
:020C3C00A5B55C
:020C3D00CE7374
:020C3E0084B57B
:020C3F009CB562
:020C4000736BD4
:020C41003A6314
:020C42003A4A2C
:020C43007B191B
:020C44005273E9
:020C4500D6DEF9
:020C4600A5B552
:020C47008CAD72
:020C4800524A0E
:020C49005A3A15
:020C4A004A63FB
:020C4B00847BA8
:020C4C004A73E9
:020C4D003A4A21
:020C4E005A63E7
:020C4F009442CD
:020C50006384BB
:020C51009CB550
:020C52007B7BAA
:020C5300426BF2
:020C54008C9C76
:020C5500A55A9E
:020C56005A94AE
:020C57009CAD52
:020C5800D65A6A
:020C59007BBD61
:020C5A00CEDEEC
:020C5B00DE8435
:020C5C008CCE3C
:020C5D00D6E6D9
:020C5E00EF9411
:020C5F009CDE19
:020C6000D6DEDE
:020C6100D69427
:020C62007BC550
:020C6300CEE6DB
:020C6400DE842C
:020C65007BC54D
:020C6600B5CE09
:020C6700AD6B73
:020C68005294A4
:020C69007B8C82
:020C6A00314A0D
:020C6B00082956
:020C6C00191954
:020C6D00100075
:020C6E00001074
:020C6F00212939
:020C7000521020
:020C7100314A06
:020C7200737B92
:020C7300844AB1
:020C74004A7BB9
:020C75006373A7
:020C76004A3AF8
:020C7700194220
:020C7800212930
:020C7900190858
:020C7A00001068
:020C7B0019213D
:020C7C004A002C
:020C7D00214212
:020C7E0084945C
:020C7F004A63C6
:020C800021420F
:020C8100293117
:020C820019084F
:020C830000105F
:020C840010104E
:020C850010005D
:020C860000105C
:020C870010104B
:020C880010005A
:020C8900000861
:020C8A004252D4
:020C8B00AD10AA
:020C8C004A8C90
:020C8D00B5D6DA
:020C8E00D65A34
:020C8F0052AD64
:020C9000A5D6E7
:020C9100DE4A39
:020C920052B559
:020C9300ADD6DC
:020C9400CE523E
:020C95004AA56E
:020C9600B5DEC9
:020C9700BD5A44
:020C9800429484
:020C99008CB518
:020C9A00BD3A61
:020C9B00529471
:020C9C0063846F
:020C9D004A21EA
:020C9E0000292B
:020C9F00192911
:020CA000100042
:020CA100001041
:020CA200101030
:020CA300080047
:020CA400000846
:020CA50010102D
:020CA60010003C
:020CA700000843
:020CA800212900
:020CA9008400C5
:020CAA00316BAC
:020CAB00A5C5DD
:020CAC00D65A16
:020CAD0063B52D
:020CAE00ADCEC9
:020CAF00CE6312
:020CB0006BB522
:020CB1007B9432
:020CB2005242AC
:020CB3001942E4
:020CB40008191D
:020CB50031000C
:020CB60000211B
:020CB7003142C8
:020CB80094089E
:020CB9003A738C
:020CBA007BA518
:020CBB00B54240
:020CBC004A8C60
:020CBD00739C26
:020CBE004A42A8
:020CBF000831FA
:020CC0001931E8
:020CC1006B00C6
:020CC200104AD6
:020CC30094B5E6
:020CC400BD521F
:020CC5004A944F
:020CC60094BDDB
:020CC700CE421B
:020CC80052A533
:020CC900A5CEB6
:020CCA00CE4A10
:020CCB0052A530
:020CCC009CC5C5
:020CCD00C54A16
:020CCE004AA535
:020CCF00A5C5B9
:020CD000C54A13
:020CD1004A9C3B
:020CD2009CBDC7
:020CD300BD4220
:020CD400429448
:020CD5009CC5BC
:020CD600C54A0D
:020CD70052A524
:020CD800B5CE97
:020CD900D663E0
:020CDA006BBDF0
:020CDB00B5D68C
:020CDC00CE6BDD
:020CDD0063B5FD
:020CDE00B5D689
:020CDF00D66BD2
:020CE00063B5FA
:020CE1009CBDB8
:020CE200A55219
:020CE3003A7B5A
:020CE400527B41
:020CE50073108A
:020CE600104AB2
:020CE7005A7B36
:020CE8008C215D
:020CE900316B6D
:020CEA00638421
:020CEB005A317C
:020CEC00083AC4
:020CED007B94F6
:020CEE00C54AF5
:020CEF007BB5D3
:020CF000A5B5A8
:020CF1007B7313
:020CF200426B53
:020CF300313A94
:020CF4002110CD
:020CF5000019E4
:020CF6001019D3
:020CF7001900E2
:020CF8000819D9
:020CF9001919C7
:020CFA001910CF
:020CFB000819D6
:020CFC001919C4
:020CFD001908D4
:020CFE000819D3
:020CFF001910CA
:020D00001008D9
:020D01000819CF
:020D02001910C6
:020D03000808DE
:020D04000819CC
:020D05001008D4
:020D06000800E3
:020D07000010DA
:020D08001008D1
:020D09001008D0
:020D0A000819C6
:020D0B001919B4
:020D0C001910BC
:020D0D000819C3
:020D0E001919B1
:020D0F001010C2
:020D10000819C0
:020D11001010C0
:020D12001008C7
:020D13000810C6
:020D14001010BD
:020D15001008C4
:020D16000010CB
:020D17001010BA
:020D18001000C9
:020D19000010C8
:020D1A001010B7
:020D1B001000C6
:020D1C000810BD
:020D1D001019AB
:020D1E002108AA
:020D1F000821A9
:020D20006394DA
:020D21009C2113
:020D2200316B33
:020D23006394D7
:020D24008C2918
:020D2500316338
:020D26007394C4
:020D27008C42FC
:020D2800426B1C
:020D29005A73FB
:020D2A005A2944
:020D2B00194A63
:020D2C006B7BDF
:020D2D009431FF
:020D2E004A7BFE
:020D2F008494AA
:020D3000AD4ACA
:020D31006B9CB9
:020D3200B5C545
:020D3300A58495
:020D3400739CAE
:020D35006B73DE
:020D3600B54ABC
:020D37009CB569
:020D3800948C99
:020D3900217B1C
:020D3A00213165
:020D3B003A2953
:020D3C0052293A
:020D3D00425A18
:020D3E0052520F
:020D3F00633A15
:020D40003A5225
:020D41007B94A1
:020D4200A55AB0
:020D43006B94AF
:020D44005A73E0
:020D4500AD31CE
:020D46006394B4
:020D4700A5B550
:020D4800C56B79
:020D490073B580
:020D4A00CEE6F3
:020D4B00DE8C3C
:020D4C008CCE4B
:020D4D00A5B54A
:020D4E00B5638B
:020D4F0063A59A
:020D5000C5D606
:020D5100DE843E
:020D520084C556
:020D5300CEDEF2
:020D5400DE843B
:020D55007BC55C
:020D5600B5CE18
:020D57008C739B
:020D58003173F5
:020D59006373C2
:020D5A00313135
:020D5B00082965
:020D5C0010196C
:020D5D0019007B
:020D5E0000197A
:020D5F00212948
:020D600073100E
:020D61004A6BDB
:020D6200636BC1
:020D63005A3AFA
:020D6400295212
:020D6500293132
:020D660019086A
:020D6700001971
:020D680019214F
:020D6900210067
:020D6A00001077
:020D6B003A420A
:020D6C00631909
:020D6D00295209
:020D6E0094A54A
:020D6F004A6BCD
:020D7000193A2E
:020D710019293E
:020D7200190066
:020D730000106E
:020D740010105D
:020D750010006C
:020D760000106B
:020D7700192140
:020D7800210058
:020D7900001068
:020D7A004A63CA
:020D7B00BD19A0
:020D7C00529C87
:020D7D00B5DEE1
:020D7E00DE6332
:020D7F005AB563
:020D8000A5CEFE
:020D8100CE4A58
:020D82004AA580
:020D8300A5CEFB
:020D8400CE4A55
:020D85004AA57D
:020D8600B5DED8
:020D8700BD5A53
:020D8800429493
:020D89009CC507
:020D8A00C54A58
:020D8B0052A56F
:020D8C007B9C4E
:020D8D006B3ABF
:020D8E00194A00
:020D8F004252CE
:020D900029191F
:020D910000213F
:020D9200101936
:020D9300190045
:020D940000104D
:020D9500081044
:020D960021003A
:020D9700001941
:020D98003A4AD5
:020D99009410B4
:020D9A003A73AA
:020D9B0084A52D
:020D9C00BD3A5E
:020D9D004A9C6E
:020D9E00ADCED8
:020D9F00CE5A2A
:020DA00063AD41
:020DA100A5C5E6
:020DA200AD633F
:020DA3005A9460
:020DA400314AD2
:020DA500310813
:020DA600001932
:020DA7004263A5
:020DA8009C1994
:020DA900427B8B
:020DAA0094B5FE
:020DAB00A54A57
:020DAC003A7B90
:020DAD008CB503
:020DAE00844A75
:020DAF002963B6
:020DB0003152BE
:020DB1008400BC
:020DB2002163BB
:020DB300A5CECB
:020DB400D66304
:020DB50063AD2C
:020DB60094B5F2
:020DB700BD3A43
:020DB800429463
:020DB900A5CEC5
:020DBA00D64A17
:020DBB0052AD37
:020DBC00ADCEBA
:020DBD00CE5214
:020DBE0052A53C
:020DBF009CC5D1
:020DC000BD4A2A
:020DC10042945A
:020DC200B5DE9C
:020DC300C56306
:020DC400529C3F
:020DC5009CBDD3
:020DC600C55214
:020DC7005AA52B
:020DC800ADC5B7
:020DC900AD6318
:020DCA004A9449
:020DCB00ADC5B4
:020DCC00CE63F4
:020DCD006BB504
:020DCE00B5CEA0
:020DCF00C56BF2
:020DD00063AD11
:020DD1009CBDC7
:020DD2009C5A29
:020DD300317B72
:020DD4004A6B68
:020DD5006310A9
:020DD6001042C9
:020DD700526B5D
:020DD8006B218D
:020DD900215A9D
:020DDA004A636A
:020DDB00941969
:020DDC0052843F
:020DDD008CA5E3
:020DDE00AD5A0C
:020DDF006B9413
:020DE00073841A
:020DE1004A5274
:020DE2002142AC
:020DE3000810F6
:020DE4001900F4
:020DE5000010FC
:020DE6001919D9
:020DE7001908E9
:020DE8000819E8
:020DE9001919D6
:020DEA001908E6
:020DEB000810EE
:020DEC001010E5
:020DED001000F4
:020DEE000810EB
:020DEF001010E2
:020DF0001000F1
:020DF1000810E8
:020DF2001008E7
:020DF3000800F6
:020DF4000010ED
:020DF5001008E4
:020DF6000800F3
:020DF7000810E2
:020DF8001008E1
:020DF9000808E8
:020DFA000010E7
:020DFB001010D6
:020DFC001000E5
:020DFD000010E4
:020DFE001010D3
:020DFF001008DA
:020E00000810D8
:020E01001010CF
:020E02001908CD
:020E03000819CC
:020E04001919BA
:020E05001010CB
:020E06000819C9
:020E07001910C0
:020E08001008D0
:020E09000819C6
:020E0A001010C6
:020E0B001000D5
:020E0C000010D4
:020E0D001010C3
:020E0E001000D2
:020E0F000010D1
:020E10006B94E1
:020E1100942922
:020E1200296B4A
:020E13006B94DE
:020E14009C310F
:020E1500427B1E
:020E16006B8CE3
:020E1700733A2C
:020E180029525D
:020E1900426332
:020E1A0052196B
:020E1B00104283
:020E1C007384DD
:020E1D00A542EC
:020E1E005A8CEC
:020E1F006B7BEB
:020E200084311B
:020E21003A7322
:020E2200A5B574
:020E2300C56B9D
:020E24008CB58B
:020E2500B5BD59
:020E26006B94CB
:020E2700526B0C
:020E2800ADA576
:020E290084A59E
:020E2A008C94A6
:020E2B00312173
:020E2C0029217A
:020E2D00193179
:020E2E00313A57
:020E2F0042215E
:020E3000213A65
:020E3100293A5C
:020E32004A086C
:020E3300193A6A
:020E34008494A4
:020E35007352F6
:020E3600316326
:020E3700A5B55F
:020E3800CE6387
:020E390073B58F
:020E3A00BDCE2B
:020E3B00DE7364
:020E3C0084C56B
:020E3D0094AD72
:020E3E00845AD4
:020E3F00316B15
:020E4000738CB1
:020E4100D63A9F
:020E420084C565
:020E4300CEE6F9
:020E4400DE8C42
:020E45007BC56B
:020E4600BDD617
:020E4700947B9A
:020E4800427BEB
:020E49004A63FA
:020E4A0031195C
:020E4B00002184
:020E4C0010197B
:020E4D0029007A
:020E4E00102969
:020E4F0031313F
:020E50006B1025
:020E51004263FA
:020E5200424A12
:020E530031214B
:020E5400102963
:020E5500192161
:020E5600210079
:020E5700001980
:020E580029313E
:020E59003A0855
:020E5A00002175
:020E5B00637BB7
:020E5C00843AD6
:020E5D004273DE
:020E5E008C9C6A
:020E5F00525AE5
:020E6000193A3D
:020E6100192155
:020E6200190075
:020E630000107D
:020E640010106C
:020E6500290062
:020E6600082161
:020E6700314216
:020E68005A101E
:020E690019422C
:020E6A007B9477
:020E6B00C5427E
:020E6C005AA585
:020E6D00B5DEF0
:020E6E00D65A52
:020E6F0052AD82
:020E7000A5CE0D
:020E7100C54A70
:020E7200429CA0
:020E7300A5D602
:020E7400DE4A54
:020E750052AD7C
:020E7600BDE6D7
:020E7700C56B49
:020E78004A9C92
:020E79009CC516
:020E7A00D64A56
:020E7B005AAD6E
:020E7C009CC513
:020E7D00A55A74
:020E7E004284AC
:020E7F006B8C7A
:020E80006B3ACB
:020E8100295AEC
:020E8200293A0B
:020E830031003C
:020E840008293B
:020E8500192131
:020E8600310039
:020E8700002148
:020E8800526BAB
:020E8900A521A1
:020E8A004284A0
:020E8B0094B51C
:020E8C00D64A44
:020E8D0063B54B
:020E8E00B5D6D7
:020E8F00CE6330
:020E900063AD50
:020E9100B5D6D4
:020E9200CE6B25
:020E93006BB53D
:020E94009CBD03
:020E9500846374
:020E96003163C6
:020E97006B8C62
:020E9800A53182
:020E99003A7BA2
:020E9A00A5CEE3
:020E9B00AD6345
:020E9C003A8496
:020E9D007BA533
:020E9E00A53A73
:020E9F003A7B9C
:020EA000739C41
:020EA100AD3171
:020EA200428488
:020EA30094BDFC
:020EA400D64A2C
:020EA5005AAD44
:020EA600A5CED7
:020EA700BD523A
:020EA800429472
:020EA9009CCEDD
:020EAA00CE4A2E
:020EAB004AA556
:020EAC009CCEDA
:020EAD00CE4A2B
:020EAE0052A54B
:020EAF00ADCEC6
:020EB000C55A21
:020EB10052A548
:020EB200BDDEA3
:020EB300DE6BF4
:020EB4006BBD14
:020EB500B5CEB8
:020EB600CE6309
:020EB7006BB519
:020EB800ADC5C6
:020EB900BD6317
:020EBA005AA537
:020EBB00B5C5BB
:020EBC00CE6BFB
:020EBD0073BD03
:020EBE00BDCEA7
:020EBF00C573F9
:020EC00063AD20
:020EC1009CB5DE
:020EC200945248
:020EC3003A7380
:020EC4003A5A98
:020EC5006B08B8
:020EC6002152B7
:020EC700526B6C
:020EC8005A29A5
:020EC900214ABC
:020ECA00637350
:020ECB009C3A4F
:020ECC005A8446
:020ECD007B9414
:020ECE005A5276
:020ECF00294AAE
:020ED0002931C6
:020ED1002110EE
:020ED2000819FD
:020ED3001019F4
:020ED4001908FB
:020ED5000819FA
:020ED6001919E8
:020ED700100801
:020ED800081000
:020ED9001010F7
:020EDA001008FE
:020EDB00001005
:020EDC001010F4
:020EDD00100003
:020EDE0000080A
:020EDF001010F1
:020EE000100000
:020EE1000010FF
:020EE2001008F6
:020EE300080005
:020EE4000010FC
:020EE5001008F3
:020EE600080002
:020EE7000010F9
:020EE8001008F0
:020EE9001000F7
:020EEA000010F6
:020EEB001010E5
:020EEC001000F4
:020EED000010F3
:020EEE001010E2
:020EEF001000F1
:020EF0000810E8
:020EF1001010DF
:020EF2001008E6
:020EF3000819DC
:020EF4001910D3
:020EF5001908DA
:020EF6001019D1
:020EF7002119BF
:020EF8001010D8
:020EF9001019CE
:020EFA001910CD
:020EFB000808E5
:020EFC000810DC
:020EFD001008DB
:020EFE001000E2
:020EFF000010E1
:020F000073A5D7
:020F0100943129
:020F0200296B59
:020F03007394E5
:020F0400943126
:020F0500427335
:020F06006B8CF2
:020F0700733A3B
:020F080029526C
:020F09004A6339
:020F0A00732151
:020F0B00295A61
:020F0C006B7BFD
:020F0D007B3A2D
:020F0E0031634D
:020F0F005A6B1B
:020F100094212A
:020F11004A8410
:020F12009CAD94
:020F1300846BED
:020F1400527316
:020F15004A523E
:020F160073293D
:020F17005A730B
:020F18008C8CBF
:020F19009C7BBF
:020F1A0094AD94
:020F1B007B6BEE
:020F1C00296347
:020F1D00193188
:020F1E003A3A5D
:020F1F0031217E
:020F2000102996
:020F210031425B
:020F220029198B
:020F23000021AB
:020F2400293A68
:020F250073084F
:020F2600316335
:020F2700A5B56E
:020F2800D66B86
:020F290084C57D
:020F2A00BDD632
:020F2B00D67B73
:020F2C007BC583
:020F2D0094AD81
:020F2E007B52F4
:020F2F00296334
:020F30007384C8
:020F3100AD3AD7
:020F32005A9CC7
:020F3300BDD629
:020F3400D67B6A
:020F350073BD8A
:020F3600BDD626
:020F3700AD7398
:020F38005294D1
:020F39006B84C7
:020F3A003A314A
:020F3B00082983
:020F3C00212969
:020F3D003A0078
:020F3E00103170
:020F3F005A63F3
:020F4000733A02
:020F41004A6BF9
:020F4200293153
:020F430019088B
:020F4400001992
:020F4500192170
:020F4600290080
:020F4700002187
:020F480084948F
:020F49008C52C8
:020F4A003A73F8
:020F4B008CA573
:020F4C00A54AB4
:020F4D00528CC4
:020F4E007B9492
:020F4F004A4214
:020F5000083166
:020F5100193154
:020F520021007C
:020F5300001983
:020F5400313A30
:020F55004A1040
:020F5600103A4F
:020F5700849C78
:020F58009452B1
:020F5900427BD9
:020F5A007B9C7E
:020F5B00BD31A6
:020F5C004294BD
:020F5D0094C539
:020F5E00CE4281
:020F5F00429CB2
:020F6000A5D614
:020F6100CE4A76
:020F6200429CAF
:020F6300A5CE19
:020F6400D64A6B
:020F650052A593
:020F6600B5DEF6
:020F6700DE5A50
:020F680063B56F
:020F690094B53D
:020F6A00C5427E
:020F6B0052A58D
:020F6C00ADCE08
:020F6D00B55A73
:020F6E004A94A3
:020F6F007B9C69
:020F7000AD3A98
:020F7100529498
:020F72005A73B0
:020F73008421D7
:020F74004273C6
:020F75004A63CD
:020F760042191E
:020F770000294F
:020F78007B9C60
:020F7900C5426F
:020F7A005AA576
:020F7B00A5CE01
:020F7C00D65A43
:020F7D005AAD6B
:020F7E00ADD6EE
:020F7F00C55A51
:020F8000529C81
:020F8100A5CEFB
:020F8200CE5A45
:020F830063AD5C
:020F8400B5DED8
:020F8500BD6B42
:020F8600529C7B
:020F87008CAD2F
:020F8800B54270
:020F8900428C98
:020F8A00A5CEF2
:020F8B00D65A34
:020F8C0063AD53
:020F8D009CC501
:020F8E00B5525A
:020F8F00428C92
:020F900094B516
:020F9100BD4A57
:020F92004A947F
:020F930094BD0B
:020F9400BD4A54
:020F95004A947C
:020F9600A5CEE6
:020F9700CE5238
:020F980052A560
:020F99009CCEEC
:020F9A00C54A46
:020F9B0042947E
:020F9C009CC5F2
:020F9D00D64A32
:020F9E005AAD4A
:020F9F00B5DEBD
